{"contracts/SimpleCounter.sol":{"SimpleCounter":{"abi":[{"anonymous":false,"inputs":[{"indexed":true,"internalType":"address","name":"sender","type":"address"},{"indexed":false,"internalType":"int256","name":"count","type":"int256"}],"name":"underCountAlteration","type":"event"},{"anonymous":false,"inputs":[{"indexed":true,"internalType":"address","name":"sender","type":"address"},{"indexed":false,"internalType":"uint256","name":"count","type":"uint256"}],"name":"valueAlteration","type":"event"},{"inputs":[{"internalType":"address","name":"newOwner","type":"address"}],"name":"changeOwner","outputs":[],"stateMutability":"nonpayable","type":"function"},{"inputs":[],"name":"decreaseCount","outputs":[],"stateMutability":"nonpayable","type":"function"},{"inputs":[],"name":"decreaseUnderCount","outputs":[],"stateMutability":"nonpayable","type":"function"},{"inputs":[],"name":"getCurrentOwner","outputs":[{"internalType":"address","name":"","type":"address"}],"stateMutability":"view","type":"function"},{"inputs":[],"name":"getUnderCount","outputs":[{"internalType":"int256","name":"","type":"int256"}],"stateMutability":"view","type":"function"},{"inputs":[],"name":"increaseCount","outputs":[],"stateMutability":"nonpayable","type":"function"},{"inputs":[],"name":"increaseUnderCount","outputs":[],"stateMutability":"nonpayable","type":"function"},{"inputs":[],"name":"isCountEven","outputs":[{"internalType":"bool","name":"","type":"bool"}],"stateMutability":"view","type":"function"},{"inputs":[],"name":"isOwner","outputs":[{"internalType":"bool","name":"","type":"bool"}],"stateMutability":"view","type":"function"},{"inputs":[],"name":"retrieve","outputs":[{"internalType":"uint256","name":"","type":"uint256"}],"stateMutability":"view","type":"function"},{"inputs":[{"internalType":"uint256","name":"num","type":"uint256"}],"name":"store","outputs":[],"stateMutability":"nonpayable","type":"function"},{"inputs":[],"name":"whoIsOwner","outputs":[{"internalType":"address","name":"","type":"address"}],"stateMutability":"view","type":"function"}],"evm":{"bytecode":{"linkReferences":{},"object":"608060405234801561001057600080fd5b50600073ffffffffffffffffffffffffffffffffffffffff163373ffffffffffffffffffffffffffffffffffffffff1603610080576040517f08c379a000000000000000000000000000000000000000000000000000000000815260040161007790610122565b60405180910390fd5b336000806101000a81548173ffffffffffffffffffffffffffffffffffffffff021916908373ffffffffffffffffffffffffffffffffffffffff160217905550610142565b600082825260208201905092915050565b7f6465706c6f7965722063616e6e6f742062652061646472203000000000000000600082015250565b600061010c6019836100c5565b9150610117826100d6565b602082019050919050565b6000602082019050818103600083015261013b816100ff565b9050919050565b610cce806101516000396000f3fe608060405234801561001057600080fd5b50600436106100b45760003560e01c80639ee1bd0f116100715780639ee1bd0f14610143578063a18a186b14610161578063a6f9dae11461017f578063abd1b73d1461019b578063e834cbb3146101a5578063eb91e510146101af576100b4565b806304156f4f146100b95780631c417b26146100c35780632e64cec1146100e15780636057361d146100ff578063846c55021461011b5780638f32d59b14610125575b600080fd5b6100c16101cd565b005b6100cb6102c7565b6040516100d89190610899565b60405180910390f35b6100e96102d1565b6040516100f691906108cd565b60405180910390f35b61011960048036038101906101149190610919565b6102db565b005b610123610373565b005b61012d61046d565b60405161013a9190610961565b60405180910390f35b61014b6104e0565b60405161015891906109bd565b60405180910390f35b6101696104ef565b60405161017691906109bd565b60405180910390f35b61019960048036038101906101949190610a04565b610518565b005b6101a361065a565b005b6101ad610753565b005b6101b761084c565b6040516101c49190610961565b60405180910390f35b60008054906101000a900473ffffffffffffffffffffffffffffffffffffffff1673ffffffffffffffffffffffffffffffffffffffff163373ffffffffffffffffffffffffffffffffffffffff161461025b576040517f08c379a000000000000000000000000000000000000000000000000000000000815260040161025290610a8e565b60405180910390fd5b60016002600082825461026e9190610add565b925050819055503373ffffffffffffffffffffffffffffffffffffffff167f6b7d14e8d2e70a54e78adffefe1b2750a3a6194baaa86c1652bc421a93eeceb76002546040516102bd9190610899565b60405180910390a2565b6000600254905090565b6000600154905090565b60008054906101000a900473ffffffffffffffffffffffffffffffffffffffff1673ffffffffffffffffffffffffffffffffffffffff163373ffffffffffffffffffffffffffffffffffffffff1614610369576040517f08c379a000000000000000000000000000000000000000000000000000000000815260040161036090610a8e565b60405180910390fd5b8060018190555050565b60008054906101000a900473ffffffffffffffffffffffffffffffffffffffff1673ffffffffffffffffffffffffffffffffffffffff163373ffffffffffffffffffffffffffffffffffffffff1614610401576040517f08c379a00000000000000000000000000000000000000000000000000000000081526004016103f890610a8e565b60405180910390fd5b6001600260008282546104149190610b20565b925050819055503373ffffffffffffffffffffffffffffffffffffffff167f6b7d14e8d2e70a54e78adffefe1b2750a3a6194baaa86c1652bc421a93eeceb76002546040516104639190610899565b60405180910390a2565b6000806104786104ef565b905060008054906101000a900473ffffffffffffffffffffffffffffffffffffffff1673ffffffffffffffffffffffffffffffffffffffff168173ffffffffffffffffffffffffffffffffffffffff16036104d75760019150506104dd565b60009150505b90565b60006104ea6104ef565b905090565b60008060009054906101000a900473ffffffffffffffffffffffffffffffffffffffff16905090565b60008054906101000a900473ffffffffffffffffffffffffffffffffffffffff1673ffffffffffffffffffffffffffffffffffffffff163373ffffffffffffffffffffffffffffffffffffffff16146105a6576040517f08c379a000000000000000000000000000000000000000000000000000000000815260040161059d90610a8e565b60405180910390fd5b80600073ffffffffffffffffffffffffffffffffffffffff168173ffffffffffffffffffffffffffffffffffffffff1603610616576040517f08c379a000000000000000000000000000000000000000000000000000000000815260040161060d90610bb0565b60405180910390fd5b816000806101000a81548173ffffffffffffffffffffffffffffffffffffffff021916908373ffffffffffffffffffffffffffffffffffffffff1602179055505050565b60008054906101000a900473ffffffffffffffffffffffffffffffffffffffff1673ffffffffffffffffffffffffffffffffffffffff163373ffffffffffffffffffffffffffffffffffffffff16146106e8576040517f08c379a00000000000000000000000000000000000000000000000000000000081526004016106df90610a8e565b60405180910390fd5b60018060008282546106fa9190610bd0565b925050819055503373ffffffffffffffffffffffffffffffffffffffff167fc38715e7eba77614becd037107ff560fcbcaeafd0330f53e0501dd7be84a2e9c60015460405161074991906108cd565b60405180910390a2565b60008054906101000a900473ffffffffffffffffffffffffffffffffffffffff1673ffffffffffffffffffffffffffffffffffffffff163373ffffffffffffffffffffffffffffffffffffffff16146107e1576040517f08c379a00000000000000000000000000000000000000000000000000000000081526004016107d890610a8e565b60405180910390fd5b60018060008282546107f39190610c04565b925050819055503373ffffffffffffffffffffffffffffffffffffffff167fc38715e7eba77614becd037107ff560fcbcaeafd0330f53e0501dd7be84a2e9c60015460405161084291906108cd565b60405180910390a2565b6000806108576102d1565b905060006002826108689190610c67565b0361087757600191505061087d565b60009150505b90565b6000819050919050565b61089381610880565b82525050565b60006020820190506108ae600083018461088a565b92915050565b6000819050919050565b6108c7816108b4565b82525050565b60006020820190506108e260008301846108be565b92915050565b600080fd5b6108f6816108b4565b811461090157600080fd5b50565b600081359050610913816108ed565b92915050565b60006020828403121561092f5761092e6108e8565b5b600061093d84828501610904565b91505092915050565b60008115159050919050565b61095b81610946565b82525050565b60006020820190506109766000830184610952565b92915050565b600073ffffffffffffffffffffffffffffffffffffffff82169050919050565b60006109a78261097c565b9050919050565b6109b78161099c565b82525050565b60006020820190506109d260008301846109ae565b92915050565b6109e18161099c565b81146109ec57600080fd5b50565b6000813590506109fe816109d8565b92915050565b600060208284031215610a1a57610a196108e8565b5b6000610a28848285016109ef565b91505092915050565b600082825260208201905092915050565b7f63616c6c6572206e6f74206f776e657200000000000000000000000000000000600082015250565b6000610a78601083610a31565b9150610a8382610a42565b602082019050919050565b60006020820190508181036000830152610aa781610a6b565b9050919050565b7f4e487b7100000000000000000000000000000000000000000000000000000000600052601160045260246000fd5b6000610ae882610880565b9150610af383610880565b9250828203905081811260008412168282136000851215161715610b1a57610b19610aae565b5b92915050565b6000610b2b82610880565b9150610b3683610880565b925082820190508281121560008312168382126000841215161715610b5e57610b5d610aae565b5b92915050565b7f6e6577206f776e65722063616e6e6f742062652061646472657373207a65726f600082015250565b6000610b9a602083610a31565b9150610ba582610b64565b602082019050919050565b60006020820190508181036000830152610bc981610b8d565b9050919050565b6000610bdb826108b4565b9150610be6836108b4565b9250828201905080821115610bfe57610bfd610aae565b5b92915050565b6000610c0f826108b4565b9150610c1a836108b4565b9250828203905081811115610c3257610c31610aae565b5b92915050565b7f4e487b7100000000000000000000000000000000000000000000000000000000600052601260045260246000fd5b6000610c72826108b4565b9150610c7d836108b4565b925082610c8d57610c8c610c38565b5b82820690509291505056fea2646970667358221220f4ce0e6d5de6fe500ebdc8a1808563f7b53948a97782ca03517bcf4982d7528e64736f6c63430008120033","opcodes":"PUSH1 0x80 PUSH1 0x40 MSTORE CALLVALUE DUP1 ISZERO PUSH2 0x10 JUMPI PUSH1 0x0 DUP1 REVERT JUMPDEST POP PUSH1 0x0 PUSH20 0xFFFFFFFFFFFFFFFFFFFFFFFFFFFFFFFFFFFFFFFF AND CALLER PUSH20 0xFFFFFFFFFFFFFFFFFFFFFFFFFFFFFFFFFFFFFFFF AND SUB PUSH2 0x80 JUMPI PUSH1 0x40 MLOAD PUSH32 0x8C379A000000000000000000000000000000000000000000000000000000000 DUP2 MSTORE PUSH1 0x4 ADD PUSH2 0x77 SWAP1 PUSH2 0x122 JUMP JUMPDEST PUSH1 0x40 MLOAD DUP1 SWAP2 SUB SWAP1 REVERT JUMPDEST CALLER PUSH1 0x0 DUP1 PUSH2 0x100 EXP DUP2 SLOAD DUP2 PUSH20 0xFFFFFFFFFFFFFFFFFFFFFFFFFFFFFFFFFFFFFFFF MUL NOT AND SWAP1 DUP4 PUSH20 0xFFFFFFFFFFFFFFFFFFFFFFFFFFFFFFFFFFFFFFFF AND MUL OR SWAP1 SSTORE POP PUSH2 0x142 JUMP JUMPDEST PUSH1 0x0 DUP3 DUP3 MSTORE PUSH1 0x20 DUP3 ADD SWAP1 POP SWAP3 SWAP2 POP POP JUMP JUMPDEST PUSH32 0x6465706C6F7965722063616E6E6F742062652061646472203000000000000000 PUSH1 0x0 DUP3 ADD MSTORE POP JUMP JUMPDEST PUSH1 0x0 PUSH2 0x10C PUSH1 0x19 DUP4 PUSH2 0xC5 JUMP JUMPDEST SWAP2 POP PUSH2 0x117 DUP3 PUSH2 0xD6 JUMP JUMPDEST PUSH1 0x20 DUP3 ADD SWAP1 POP SWAP2 SWAP1 POP JUMP JUMPDEST PUSH1 0x0 PUSH1 0x20 DUP3 ADD SWAP1 POP DUP2 DUP2 SUB PUSH1 0x0 DUP4 ADD MSTORE PUSH2 0x13B DUP2 PUSH2 0xFF JUMP JUMPDEST SWAP1 POP SWAP2 SWAP1 POP JUMP JUMPDEST PUSH2 0xCCE DUP1 PUSH2 0x151 PUSH1 0x0 CODECOPY PUSH1 0x0 RETURN INVALID PUSH1 0x80 PUSH1 0x40 MSTORE CALLVALUE DUP1 ISZERO PUSH2 0x10 JUMPI PUSH1 0x0 DUP1 REVERT JUMPDEST POP PUSH1 0x4 CALLDATASIZE LT PUSH2 0xB4 JUMPI PUSH1 0x0 CALLDATALOAD PUSH1 0xE0 SHR DUP1 PUSH4 0x9EE1BD0F GT PUSH2 0x71 JUMPI DUP1 PUSH4 0x9EE1BD0F EQ PUSH2 0x143 JUMPI DUP1 PUSH4 0xA18A186B EQ PUSH2 0x161 JUMPI DUP1 PUSH4 0xA6F9DAE1 EQ PUSH2 0x17F JUMPI DUP1 PUSH4 0xABD1B73D EQ PUSH2 0x19B JUMPI DUP1 PUSH4 0xE834CBB3 EQ PUSH2 0x1A5 JUMPI DUP1 PUSH4 0xEB91E510 EQ PUSH2 0x1AF JUMPI PUSH2 0xB4 JUMP JUMPDEST DUP1 PUSH4 0x4156F4F EQ PUSH2 0xB9 JUMPI DUP1 PUSH4 0x1C417B26 EQ PUSH2 0xC3 JUMPI DUP1 PUSH4 0x2E64CEC1 EQ PUSH2 0xE1 JUMPI DUP1 PUSH4 0x6057361D EQ PUSH2 0xFF JUMPI DUP1 PUSH4 0x846C5502 EQ PUSH2 0x11B JUMPI DUP1 PUSH4 0x8F32D59B EQ PUSH2 0x125 JUMPI JUMPDEST PUSH1 0x0 DUP1 REVERT JUMPDEST PUSH2 0xC1 PUSH2 0x1CD JUMP JUMPDEST STOP JUMPDEST PUSH2 0xCB PUSH2 0x2C7 JUMP JUMPDEST PUSH1 0x40 MLOAD PUSH2 0xD8 SWAP2 SWAP1 PUSH2 0x899 JUMP JUMPDEST PUSH1 0x40 MLOAD DUP1 SWAP2 SUB SWAP1 RETURN JUMPDEST PUSH2 0xE9 PUSH2 0x2D1 JUMP JUMPDEST PUSH1 0x40 MLOAD PUSH2 0xF6 SWAP2 SWAP1 PUSH2 0x8CD JUMP JUMPDEST PUSH1 0x40 MLOAD DUP1 SWAP2 SUB SWAP1 RETURN JUMPDEST PUSH2 0x119 PUSH1 0x4 DUP1 CALLDATASIZE SUB DUP2 ADD SWAP1 PUSH2 0x114 SWAP2 SWAP1 PUSH2 0x919 JUMP JUMPDEST PUSH2 0x2DB JUMP JUMPDEST STOP JUMPDEST PUSH2 0x123 PUSH2 0x373 JUMP JUMPDEST STOP JUMPDEST PUSH2 0x12D PUSH2 0x46D JUMP JUMPDEST PUSH1 0x40 MLOAD PUSH2 0x13A SWAP2 SWAP1 PUSH2 0x961 JUMP JUMPDEST PUSH1 0x40 MLOAD DUP1 SWAP2 SUB SWAP1 RETURN JUMPDEST PUSH2 0x14B PUSH2 0x4E0 JUMP JUMPDEST PUSH1 0x40 MLOAD PUSH2 0x158 SWAP2 SWAP1 PUSH2 0x9BD JUMP JUMPDEST PUSH1 0x40 MLOAD DUP1 SWAP2 SUB SWAP1 RETURN JUMPDEST PUSH2 0x169 PUSH2 0x4EF JUMP JUMPDEST PUSH1 0x40 MLOAD PUSH2 0x176 SWAP2 SWAP1 PUSH2 0x9BD JUMP JUMPDEST PUSH1 0x40 MLOAD DUP1 SWAP2 SUB SWAP1 RETURN JUMPDEST PUSH2 0x199 PUSH1 0x4 DUP1 CALLDATASIZE SUB DUP2 ADD SWAP1 PUSH2 0x194 SWAP2 SWAP1 PUSH2 0xA04 JUMP JUMPDEST PUSH2 0x518 JUMP JUMPDEST STOP JUMPDEST PUSH2 0x1A3 PUSH2 0x65A JUMP JUMPDEST STOP JUMPDEST PUSH2 0x1AD PUSH2 0x753 JUMP JUMPDEST STOP JUMPDEST PUSH2 0x1B7 PUSH2 0x84C JUMP JUMPDEST PUSH1 0x40 MLOAD PUSH2 0x1C4 SWAP2 SWAP1 PUSH2 0x961 JUMP JUMPDEST PUSH1 0x40 MLOAD DUP1 SWAP2 SUB SWAP1 RETURN JUMPDEST PUSH1 0x0 DUP1 SLOAD SWAP1 PUSH2 0x100 EXP SWAP1 DIV PUSH20 0xFFFFFFFFFFFFFFFFFFFFFFFFFFFFFFFFFFFFFFFF AND PUSH20 0xFFFFFFFFFFFFFFFFFFFFFFFFFFFFFFFFFFFFFFFF AND CALLER PUSH20 0xFFFFFFFFFFFFFFFFFFFFFFFFFFFFFFFFFFFFFFFF AND EQ PUSH2 0x25B JUMPI PUSH1 0x40 MLOAD PUSH32 0x8C379A000000000000000000000000000000000000000000000000000000000 DUP2 MSTORE PUSH1 0x4 ADD PUSH2 0x252 SWAP1 PUSH2 0xA8E JUMP JUMPDEST PUSH1 0x40 MLOAD DUP1 SWAP2 SUB SWAP1 REVERT JUMPDEST PUSH1 0x1 PUSH1 0x2 PUSH1 0x0 DUP3 DUP3 SLOAD PUSH2 0x26E SWAP2 SWAP1 PUSH2 0xADD JUMP JUMPDEST SWAP3 POP POP DUP2 SWAP1 SSTORE POP CALLER PUSH20 0xFFFFFFFFFFFFFFFFFFFFFFFFFFFFFFFFFFFFFFFF AND PUSH32 0x6B7D14E8D2E70A54E78ADFFEFE1B2750A3A6194BAAA86C1652BC421A93EECEB7 PUSH1 0x2 SLOAD PUSH1 0x40 MLOAD PUSH2 0x2BD SWAP2 SWAP1 PUSH2 0x899 JUMP JUMPDEST PUSH1 0x40 MLOAD DUP1 SWAP2 SUB SWAP1 LOG2 JUMP JUMPDEST PUSH1 0x0 PUSH1 0x2 SLOAD SWAP1 POP SWAP1 JUMP JUMPDEST PUSH1 0x0 PUSH1 0x1 SLOAD SWAP1 POP SWAP1 JUMP JUMPDEST PUSH1 0x0 DUP1 SLOAD SWAP1 PUSH2 0x100 EXP SWAP1 DIV PUSH20 0xFFFFFFFFFFFFFFFFFFFFFFFFFFFFFFFFFFFFFFFF AND PUSH20 0xFFFFFFFFFFFFFFFFFFFFFFFFFFFFFFFFFFFFFFFF AND CALLER PUSH20 0xFFFFFFFFFFFFFFFFFFFFFFFFFFFFFFFFFFFFFFFF AND EQ PUSH2 0x369 JUMPI PUSH1 0x40 MLOAD PUSH32 0x8C379A000000000000000000000000000000000000000000000000000000000 DUP2 MSTORE PUSH1 0x4 ADD PUSH2 0x360 SWAP1 PUSH2 0xA8E JUMP JUMPDEST PUSH1 0x40 MLOAD DUP1 SWAP2 SUB SWAP1 REVERT JUMPDEST DUP1 PUSH1 0x1 DUP2 SWAP1 SSTORE POP POP JUMP JUMPDEST PUSH1 0x0 DUP1 SLOAD SWAP1 PUSH2 0x100 EXP SWAP1 DIV PUSH20 0xFFFFFFFFFFFFFFFFFFFFFFFFFFFFFFFFFFFFFFFF AND PUSH20 0xFFFFFFFFFFFFFFFFFFFFFFFFFFFFFFFFFFFFFFFF AND CALLER PUSH20 0xFFFFFFFFFFFFFFFFFFFFFFFFFFFFFFFFFFFFFFFF AND EQ PUSH2 0x401 JUMPI PUSH1 0x40 MLOAD PUSH32 0x8C379A000000000000000000000000000000000000000000000000000000000 DUP2 MSTORE PUSH1 0x4 ADD PUSH2 0x3F8 SWAP1 PUSH2 0xA8E JUMP JUMPDEST PUSH1 0x40 MLOAD DUP1 SWAP2 SUB SWAP1 REVERT JUMPDEST PUSH1 0x1 PUSH1 0x2 PUSH1 0x0 DUP3 DUP3 SLOAD PUSH2 0x414 SWAP2 SWAP1 PUSH2 0xB20 JUMP JUMPDEST SWAP3 POP POP DUP2 SWAP1 SSTORE POP CALLER PUSH20 0xFFFFFFFFFFFFFFFFFFFFFFFFFFFFFFFFFFFFFFFF AND PUSH32 0x6B7D14E8D2E70A54E78ADFFEFE1B2750A3A6194BAAA86C1652BC421A93EECEB7 PUSH1 0x2 SLOAD PUSH1 0x40 MLOAD PUSH2 0x463 SWAP2 SWAP1 PUSH2 0x899 JUMP JUMPDEST PUSH1 0x40 MLOAD DUP1 SWAP2 SUB SWAP1 LOG2 JUMP JUMPDEST PUSH1 0x0 DUP1 PUSH2 0x478 PUSH2 0x4EF JUMP JUMPDEST SWAP1 POP PUSH1 0x0 DUP1 SLOAD SWAP1 PUSH2 0x100 EXP SWAP1 DIV PUSH20 0xFFFFFFFFFFFFFFFFFFFFFFFFFFFFFFFFFFFFFFFF AND PUSH20 0xFFFFFFFFFFFFFFFFFFFFFFFFFFFFFFFFFFFFFFFF AND DUP2 PUSH20 0xFFFFFFFFFFFFFFFFFFFFFFFFFFFFFFFFFFFFFFFF AND SUB PUSH2 0x4D7 JUMPI PUSH1 0x1 SWAP2 POP POP PUSH2 0x4DD JUMP JUMPDEST PUSH1 0x0 SWAP2 POP POP JUMPDEST SWAP1 JUMP JUMPDEST PUSH1 0x0 PUSH2 0x4EA PUSH2 0x4EF JUMP JUMPDEST SWAP1 POP SWAP1 JUMP JUMPDEST PUSH1 0x0 DUP1 PUSH1 0x0 SWAP1 SLOAD SWAP1 PUSH2 0x100 EXP SWAP1 DIV PUSH20 0xFFFFFFFFFFFFFFFFFFFFFFFFFFFFFFFFFFFFFFFF AND SWAP1 POP SWAP1 JUMP JUMPDEST PUSH1 0x0 DUP1 SLOAD SWAP1 PUSH2 0x100 EXP SWAP1 DIV PUSH20 0xFFFFFFFFFFFFFFFFFFFFFFFFFFFFFFFFFFFFFFFF AND PUSH20 0xFFFFFFFFFFFFFFFFFFFFFFFFFFFFFFFFFFFFFFFF AND CALLER PUSH20 0xFFFFFFFFFFFFFFFFFFFFFFFFFFFFFFFFFFFFFFFF AND EQ PUSH2 0x5A6 JUMPI PUSH1 0x40 MLOAD PUSH32 0x8C379A000000000000000000000000000000000000000000000000000000000 DUP2 MSTORE PUSH1 0x4 ADD PUSH2 0x59D SWAP1 PUSH2 0xA8E JUMP JUMPDEST PUSH1 0x40 MLOAD DUP1 SWAP2 SUB SWAP1 REVERT JUMPDEST DUP1 PUSH1 0x0 PUSH20 0xFFFFFFFFFFFFFFFFFFFFFFFFFFFFFFFFFFFFFFFF AND DUP2 PUSH20 0xFFFFFFFFFFFFFFFFFFFFFFFFFFFFFFFFFFFFFFFF AND SUB PUSH2 0x616 JUMPI PUSH1 0x40 MLOAD PUSH32 0x8C379A000000000000000000000000000000000000000000000000000000000 DUP2 MSTORE PUSH1 0x4 ADD PUSH2 0x60D SWAP1 PUSH2 0xBB0 JUMP JUMPDEST PUSH1 0x40 MLOAD DUP1 SWAP2 SUB SWAP1 REVERT JUMPDEST DUP2 PUSH1 0x0 DUP1 PUSH2 0x100 EXP DUP2 SLOAD DUP2 PUSH20 0xFFFFFFFFFFFFFFFFFFFFFFFFFFFFFFFFFFFFFFFF MUL NOT AND SWAP1 DUP4 PUSH20 0xFFFFFFFFFFFFFFFFFFFFFFFFFFFFFFFFFFFFFFFF AND MUL OR SWAP1 SSTORE POP POP POP JUMP JUMPDEST PUSH1 0x0 DUP1 SLOAD SWAP1 PUSH2 0x100 EXP SWAP1 DIV PUSH20 0xFFFFFFFFFFFFFFFFFFFFFFFFFFFFFFFFFFFFFFFF AND PUSH20 0xFFFFFFFFFFFFFFFFFFFFFFFFFFFFFFFFFFFFFFFF AND CALLER PUSH20 0xFFFFFFFFFFFFFFFFFFFFFFFFFFFFFFFFFFFFFFFF AND EQ PUSH2 0x6E8 JUMPI PUSH1 0x40 MLOAD PUSH32 0x8C379A000000000000000000000000000000000000000000000000000000000 DUP2 MSTORE PUSH1 0x4 ADD PUSH2 0x6DF SWAP1 PUSH2 0xA8E JUMP JUMPDEST PUSH1 0x40 MLOAD DUP1 SWAP2 SUB SWAP1 REVERT JUMPDEST PUSH1 0x1 DUP1 PUSH1 0x0 DUP3 DUP3 SLOAD PUSH2 0x6FA SWAP2 SWAP1 PUSH2 0xBD0 JUMP JUMPDEST SWAP3 POP POP DUP2 SWAP1 SSTORE POP CALLER PUSH20 0xFFFFFFFFFFFFFFFFFFFFFFFFFFFFFFFFFFFFFFFF AND PUSH32 0xC38715E7EBA77614BECD037107FF560FCBCAEAFD0330F53E0501DD7BE84A2E9C PUSH1 0x1 SLOAD PUSH1 0x40 MLOAD PUSH2 0x749 SWAP2 SWAP1 PUSH2 0x8CD JUMP JUMPDEST PUSH1 0x40 MLOAD DUP1 SWAP2 SUB SWAP1 LOG2 JUMP JUMPDEST PUSH1 0x0 DUP1 SLOAD SWAP1 PUSH2 0x100 EXP SWAP1 DIV PUSH20 0xFFFFFFFFFFFFFFFFFFFFFFFFFFFFFFFFFFFFFFFF AND PUSH20 0xFFFFFFFFFFFFFFFFFFFFFFFFFFFFFFFFFFFFFFFF AND CALLER PUSH20 0xFFFFFFFFFFFFFFFFFFFFFFFFFFFFFFFFFFFFFFFF AND EQ PUSH2 0x7E1 JUMPI PUSH1 0x40 MLOAD PUSH32 0x8C379A000000000000000000000000000000000000000000000000000000000 DUP2 MSTORE PUSH1 0x4 ADD PUSH2 0x7D8 SWAP1 PUSH2 0xA8E JUMP JUMPDEST PUSH1 0x40 MLOAD DUP1 SWAP2 SUB SWAP1 REVERT JUMPDEST PUSH1 0x1 DUP1 PUSH1 0x0 DUP3 DUP3 SLOAD PUSH2 0x7F3 SWAP2 SWAP1 PUSH2 0xC04 JUMP JUMPDEST SWAP3 POP POP DUP2 SWAP1 SSTORE POP CALLER PUSH20 0xFFFFFFFFFFFFFFFFFFFFFFFFFFFFFFFFFFFFFFFF AND PUSH32 0xC38715E7EBA77614BECD037107FF560FCBCAEAFD0330F53E0501DD7BE84A2E9C PUSH1 0x1 SLOAD PUSH1 0x40 MLOAD PUSH2 0x842 SWAP2 SWAP1 PUSH2 0x8CD JUMP JUMPDEST PUSH1 0x40 MLOAD DUP1 SWAP2 SUB SWAP1 LOG2 JUMP JUMPDEST PUSH1 0x0 DUP1 PUSH2 0x857 PUSH2 0x2D1 JUMP JUMPDEST SWAP1 POP PUSH1 0x0 PUSH1 0x2 DUP3 PUSH2 0x868 SWAP2 SWAP1 PUSH2 0xC67 JUMP JUMPDEST SUB PUSH2 0x877 JUMPI PUSH1 0x1 SWAP2 POP POP PUSH2 0x87D JUMP JUMPDEST PUSH1 0x0 SWAP2 POP POP JUMPDEST SWAP1 JUMP JUMPDEST PUSH1 0x0 DUP2 SWAP1 POP SWAP2 SWAP1 POP JUMP JUMPDEST PUSH2 0x893 DUP2 PUSH2 0x880 JUMP JUMPDEST DUP3 MSTORE POP POP JUMP JUMPDEST PUSH1 0x0 PUSH1 0x20 DUP3 ADD SWAP1 POP PUSH2 0x8AE PUSH1 0x0 DUP4 ADD DUP5 PUSH2 0x88A JUMP JUMPDEST SWAP3 SWAP2 POP POP JUMP JUMPDEST PUSH1 0x0 DUP2 SWAP1 POP SWAP2 SWAP1 POP JUMP JUMPDEST PUSH2 0x8C7 DUP2 PUSH2 0x8B4 JUMP JUMPDEST DUP3 MSTORE POP POP JUMP JUMPDEST PUSH1 0x0 PUSH1 0x20 DUP3 ADD SWAP1 POP PUSH2 0x8E2 PUSH1 0x0 DUP4 ADD DUP5 PUSH2 0x8BE JUMP JUMPDEST SWAP3 SWAP2 POP POP JUMP JUMPDEST PUSH1 0x0 DUP1 REVERT JUMPDEST PUSH2 0x8F6 DUP2 PUSH2 0x8B4 JUMP JUMPDEST DUP2 EQ PUSH2 0x901 JUMPI PUSH1 0x0 DUP1 REVERT JUMPDEST POP JUMP JUMPDEST PUSH1 0x0 DUP2 CALLDATALOAD SWAP1 POP PUSH2 0x913 DUP2 PUSH2 0x8ED JUMP JUMPDEST SWAP3 SWAP2 POP POP JUMP JUMPDEST PUSH1 0x0 PUSH1 0x20 DUP3 DUP5 SUB SLT ISZERO PUSH2 0x92F JUMPI PUSH2 0x92E PUSH2 0x8E8 JUMP JUMPDEST JUMPDEST PUSH1 0x0 PUSH2 0x93D DUP5 DUP3 DUP6 ADD PUSH2 0x904 JUMP JUMPDEST SWAP2 POP POP SWAP3 SWAP2 POP POP JUMP JUMPDEST PUSH1 0x0 DUP2 ISZERO ISZERO SWAP1 POP SWAP2 SWAP1 POP JUMP JUMPDEST PUSH2 0x95B DUP2 PUSH2 0x946 JUMP JUMPDEST DUP3 MSTORE POP POP JUMP JUMPDEST PUSH1 0x0 PUSH1 0x20 DUP3 ADD SWAP1 POP PUSH2 0x976 PUSH1 0x0 DUP4 ADD DUP5 PUSH2 0x952 JUMP JUMPDEST SWAP3 SWAP2 POP POP JUMP JUMPDEST PUSH1 0x0 PUSH20 0xFFFFFFFFFFFFFFFFFFFFFFFFFFFFFFFFFFFFFFFF DUP3 AND SWAP1 POP SWAP2 SWAP1 POP JUMP JUMPDEST PUSH1 0x0 PUSH2 0x9A7 DUP3 PUSH2 0x97C JUMP JUMPDEST SWAP1 POP SWAP2 SWAP1 POP JUMP JUMPDEST PUSH2 0x9B7 DUP2 PUSH2 0x99C JUMP JUMPDEST DUP3 MSTORE POP POP JUMP JUMPDEST PUSH1 0x0 PUSH1 0x20 DUP3 ADD SWAP1 POP PUSH2 0x9D2 PUSH1 0x0 DUP4 ADD DUP5 PUSH2 0x9AE JUMP JUMPDEST SWAP3 SWAP2 POP POP JUMP JUMPDEST PUSH2 0x9E1 DUP2 PUSH2 0x99C JUMP JUMPDEST DUP2 EQ PUSH2 0x9EC JUMPI PUSH1 0x0 DUP1 REVERT JUMPDEST POP JUMP JUMPDEST PUSH1 0x0 DUP2 CALLDATALOAD SWAP1 POP PUSH2 0x9FE DUP2 PUSH2 0x9D8 JUMP JUMPDEST SWAP3 SWAP2 POP POP JUMP JUMPDEST PUSH1 0x0 PUSH1 0x20 DUP3 DUP5 SUB SLT ISZERO PUSH2 0xA1A JUMPI PUSH2 0xA19 PUSH2 0x8E8 JUMP JUMPDEST JUMPDEST PUSH1 0x0 PUSH2 0xA28 DUP5 DUP3 DUP6 ADD PUSH2 0x9EF JUMP JUMPDEST SWAP2 POP POP SWAP3 SWAP2 POP POP JUMP JUMPDEST PUSH1 0x0 DUP3 DUP3 MSTORE PUSH1 0x20 DUP3 ADD SWAP1 POP SWAP3 SWAP2 POP POP JUMP JUMPDEST PUSH32 0x63616C6C6572206E6F74206F776E657200000000000000000000000000000000 PUSH1 0x0 DUP3 ADD MSTORE POP JUMP JUMPDEST PUSH1 0x0 PUSH2 0xA78 PUSH1 0x10 DUP4 PUSH2 0xA31 JUMP JUMPDEST SWAP2 POP PUSH2 0xA83 DUP3 PUSH2 0xA42 JUMP JUMPDEST PUSH1 0x20 DUP3 ADD SWAP1 POP SWAP2 SWAP1 POP JUMP JUMPDEST PUSH1 0x0 PUSH1 0x20 DUP3 ADD SWAP1 POP DUP2 DUP2 SUB PUSH1 0x0 DUP4 ADD MSTORE PUSH2 0xAA7 DUP2 PUSH2 0xA6B JUMP JUMPDEST SWAP1 POP SWAP2 SWAP1 POP JUMP JUMPDEST PUSH32 0x4E487B7100000000000000000000000000000000000000000000000000000000 PUSH1 0x0 MSTORE PUSH1 0x11 PUSH1 0x4 MSTORE PUSH1 0x24 PUSH1 0x0 REVERT JUMPDEST PUSH1 0x0 PUSH2 0xAE8 DUP3 PUSH2 0x880 JUMP JUMPDEST SWAP2 POP PUSH2 0xAF3 DUP4 PUSH2 0x880 JUMP JUMPDEST SWAP3 POP DUP3 DUP3 SUB SWAP1 POP DUP2 DUP2 SLT PUSH1 0x0 DUP5 SLT AND DUP3 DUP3 SGT PUSH1 0x0 DUP6 SLT ISZERO AND OR ISZERO PUSH2 0xB1A JUMPI PUSH2 0xB19 PUSH2 0xAAE JUMP JUMPDEST JUMPDEST SWAP3 SWAP2 POP POP JUMP JUMPDEST PUSH1 0x0 PUSH2 0xB2B DUP3 PUSH2 0x880 JUMP JUMPDEST SWAP2 POP PUSH2 0xB36 DUP4 PUSH2 0x880 JUMP JUMPDEST SWAP3 POP DUP3 DUP3 ADD SWAP1 POP DUP3 DUP2 SLT ISZERO PUSH1 0x0 DUP4 SLT AND DUP4 DUP3 SLT PUSH1 0x0 DUP5 SLT ISZERO AND OR ISZERO PUSH2 0xB5E JUMPI PUSH2 0xB5D PUSH2 0xAAE JUMP JUMPDEST JUMPDEST SWAP3 SWAP2 POP POP JUMP JUMPDEST PUSH32 0x6E6577206F776E65722063616E6E6F742062652061646472657373207A65726F PUSH1 0x0 DUP3 ADD MSTORE POP JUMP JUMPDEST PUSH1 0x0 PUSH2 0xB9A PUSH1 0x20 DUP4 PUSH2 0xA31 JUMP JUMPDEST SWAP2 POP PUSH2 0xBA5 DUP3 PUSH2 0xB64 JUMP JUMPDEST PUSH1 0x20 DUP3 ADD SWAP1 POP SWAP2 SWAP1 POP JUMP JUMPDEST PUSH1 0x0 PUSH1 0x20 DUP3 ADD SWAP1 POP DUP2 DUP2 SUB PUSH1 0x0 DUP4 ADD MSTORE PUSH2 0xBC9 DUP2 PUSH2 0xB8D JUMP JUMPDEST SWAP1 POP SWAP2 SWAP1 POP JUMP JUMPDEST PUSH1 0x0 PUSH2 0xBDB DUP3 PUSH2 0x8B4 JUMP JUMPDEST SWAP2 POP PUSH2 0xBE6 DUP4 PUSH2 0x8B4 JUMP JUMPDEST SWAP3 POP DUP3 DUP3 ADD SWAP1 POP DUP1 DUP3 GT ISZERO PUSH2 0xBFE JUMPI PUSH2 0xBFD PUSH2 0xAAE JUMP JUMPDEST JUMPDEST SWAP3 SWAP2 POP POP JUMP JUMPDEST PUSH1 0x0 PUSH2 0xC0F DUP3 PUSH2 0x8B4 JUMP JUMPDEST SWAP2 POP PUSH2 0xC1A DUP4 PUSH2 0x8B4 JUMP JUMPDEST SWAP3 POP DUP3 DUP3 SUB SWAP1 POP DUP2 DUP2 GT ISZERO PUSH2 0xC32 JUMPI PUSH2 0xC31 PUSH2 0xAAE JUMP JUMPDEST JUMPDEST SWAP3 SWAP2 POP POP JUMP JUMPDEST PUSH32 0x4E487B7100000000000000000000000000000000000000000000000000000000 PUSH1 0x0 MSTORE PUSH1 0x12 PUSH1 0x4 MSTORE PUSH1 0x24 PUSH1 0x0 REVERT JUMPDEST PUSH1 0x0 PUSH2 0xC72 DUP3 PUSH2 0x8B4 JUMP JUMPDEST SWAP2 POP PUSH2 0xC7D DUP4 PUSH2 0x8B4 JUMP JUMPDEST SWAP3 POP DUP3 PUSH2 0xC8D JUMPI PUSH2 0xC8C PUSH2 0xC38 JUMP JUMPDEST JUMPDEST DUP3 DUP3 MOD SWAP1 POP SWAP3 SWAP2 POP POP JUMP INVALID LOG2 PUSH5 0x6970667358 0x22 SLT KECCAK256 DELEGATECALL 0xCE 0xE PUSH14 0x5DE6FE500EBDC8A1808563F7B539 BASEFEE 0xA9 PUSH24 0x82CA03517BCF4982D7528E64736F6C634300081200330000 "},"methodIdentifiers":{"changeOwner(address)":"a6f9dae1","decreaseCount()":"e834cbb3","decreaseUnderCount()":"04156f4f","getCurrentOwner()":"a18a186b","getUnderCount()":"1c417b26","increaseCount()":"abd1b73d","increaseUnderCount()":"846c5502","isCountEven()":"eb91e510","isOwner()":"8f32d59b","retrieve()":"2e64cec1","store(uint256)":"6057361d","whoIsOwner()":"9ee1bd0f"}}}}}