{"contracts/JustCounter.sol":{"JustCounter":{"abi":[{"inputs":[],"name":"count","outputs":[{"internalType":"uint256","name":"","type":"uint256"}],"stateMutability":"view","type":"function"},{"inputs":[],"name":"decreaseCount","outputs":[],"stateMutability":"nonpayable","type":"function"},{"inputs":[],"name":"decreaseUnderCount","outputs":[],"stateMutability":"nonpayable","type":"function"},{"inputs":[],"name":"getUnderCount","outputs":[{"internalType":"int256","name":"","type":"int256"}],"stateMutability":"view","type":"function"},{"inputs":[],"name":"increaseCount","outputs":[],"stateMutability":"nonpayable","type":"function"},{"inputs":[],"name":"increaseUnderCount","outputs":[],"stateMutability":"nonpayable","type":"function"},{"inputs":[],"name":"isCountEven","outputs":[{"internalType":"bool","name":"","type":"bool"}],"stateMutability":"view","type":"function"},{"inputs":[],"name":"retrieve","outputs":[{"internalType":"uint256","name":"","type":"uint256"}],"stateMutability":"view","type":"function"},{"inputs":[{"internalType":"uint256","name":"num","type":"uint256"}],"name":"store","outputs":[],"stateMutability":"nonpayable","type":"function"},{"inputs":[],"name":"underCount","outputs":[{"internalType":"int256","name":"","type":"int256"}],"stateMutability":"view","type":"function"}],"evm":{"bytecode":{"linkReferences":{},"object":"608060405234801561001057600080fd5b506104f6806100206000396000f3fe608060405234801561001057600080fd5b506004361061009e5760003560e01c8063846c550211610066578063846c550214610123578063abd1b73d1461012d578063bd7b049614610137578063e834cbb314610155578063eb91e5101461015f5761009e565b806304156f4f146100a357806306661abd146100ad5780631c417b26146100cb5780632e64cec1146100e95780636057361d14610107575b600080fd5b6100ab61017d565b005b6100b5610198565b6040516100c2919061025f565b60405180910390f35b6100d361019e565b6040516100e09190610293565b60405180910390f35b6100f16101a8565b6040516100fe919061025f565b60405180910390f35b610121600480360381019061011c91906102df565b6101b1565b005b61012b6101bb565b005b6101356101d6565b005b61013f6101f1565b60405161014c9190610293565b60405180910390f35b61015d6101f7565b005b610167610212565b6040516101749190610327565b60405180910390f35b600180600082825461018f9190610371565b92505081905550565b60005481565b6000600154905090565b60008054905090565b8060008190555050565b60018060008282546101cd91906103b4565b92505081905550565b60016000808282546101e891906103f8565b92505081905550565b60015481565b6001600080828254610209919061042c565b92505081905550565b60008061021d6101a8565b9050600060028261022e919061048f565b0361023d576001915050610243565b60009150505b90565b6000819050919050565b61025981610246565b82525050565b60006020820190506102746000830184610250565b92915050565b6000819050919050565b61028d8161027a565b82525050565b60006020820190506102a86000830184610284565b92915050565b600080fd5b6102bc81610246565b81146102c757600080fd5b50565b6000813590506102d9816102b3565b92915050565b6000602082840312156102f5576102f46102ae565b5b6000610303848285016102ca565b91505092915050565b60008115159050919050565b6103218161030c565b82525050565b600060208201905061033c6000830184610318565b92915050565b7f4e487b7100000000000000000000000000000000000000000000000000000000600052601160045260246000fd5b600061037c8261027a565b91506103878361027a565b92508282039050818112600084121682821360008512151617156103ae576103ad610342565b5b92915050565b60006103bf8261027a565b91506103ca8361027a565b9250828201905082811215600083121683821260008412151617156103f2576103f1610342565b5b92915050565b600061040382610246565b915061040e83610246565b925082820190508082111561042657610425610342565b5b92915050565b600061043782610246565b915061044283610246565b925082820390508181111561045a57610459610342565b5b92915050565b7f4e487b7100000000000000000000000000000000000000000000000000000000600052601260045260246000fd5b600061049a82610246565b91506104a583610246565b9250826104b5576104b4610460565b5b82820690509291505056fea26469706673582212204772d97509a5c66c5c5659ddc7e3240c6e60a999d4864bdc4ee8ea8b97aa0f2264736f6c63430008120033","opcodes":"PUSH1 0x80 PUSH1 0x40 MSTORE CALLVALUE DUP1 ISZERO PUSH2 0x10 JUMPI PUSH1 0x0 DUP1 REVERT JUMPDEST POP PUSH2 0x4F6 DUP1 PUSH2 0x20 PUSH1 0x0 CODECOPY PUSH1 0x0 RETURN INVALID PUSH1 0x80 PUSH1 0x40 MSTORE CALLVALUE DUP1 ISZERO PUSH2 0x10 JUMPI PUSH1 0x0 DUP1 REVERT JUMPDEST POP PUSH1 0x4 CALLDATASIZE LT PUSH2 0x9E JUMPI PUSH1 0x0 CALLDATALOAD PUSH1 0xE0 SHR DUP1 PUSH4 0x846C5502 GT PUSH2 0x66 JUMPI DUP1 PUSH4 0x846C5502 EQ PUSH2 0x123 JUMPI DUP1 PUSH4 0xABD1B73D EQ PUSH2 0x12D JUMPI DUP1 PUSH4 0xBD7B0496 EQ PUSH2 0x137 JUMPI DUP1 PUSH4 0xE834CBB3 EQ PUSH2 0x155 JUMPI DUP1 PUSH4 0xEB91E510 EQ PUSH2 0x15F JUMPI PUSH2 0x9E JUMP JUMPDEST DUP1 PUSH4 0x4156F4F EQ PUSH2 0xA3 JUMPI DUP1 PUSH4 0x6661ABD EQ PUSH2 0xAD JUMPI DUP1 PUSH4 0x1C417B26 EQ PUSH2 0xCB JUMPI DUP1 PUSH4 0x2E64CEC1 EQ PUSH2 0xE9 JUMPI DUP1 PUSH4 0x6057361D EQ PUSH2 0x107 JUMPI JUMPDEST PUSH1 0x0 DUP1 REVERT JUMPDEST PUSH2 0xAB PUSH2 0x17D JUMP JUMPDEST STOP JUMPDEST PUSH2 0xB5 PUSH2 0x198 JUMP JUMPDEST PUSH1 0x40 MLOAD PUSH2 0xC2 SWAP2 SWAP1 PUSH2 0x25F JUMP JUMPDEST PUSH1 0x40 MLOAD DUP1 SWAP2 SUB SWAP1 RETURN JUMPDEST PUSH2 0xD3 PUSH2 0x19E JUMP JUMPDEST PUSH1 0x40 MLOAD PUSH2 0xE0 SWAP2 SWAP1 PUSH2 0x293 JUMP JUMPDEST PUSH1 0x40 MLOAD DUP1 SWAP2 SUB SWAP1 RETURN JUMPDEST PUSH2 0xF1 PUSH2 0x1A8 JUMP JUMPDEST PUSH1 0x40 MLOAD PUSH2 0xFE SWAP2 SWAP1 PUSH2 0x25F JUMP JUMPDEST PUSH1 0x40 MLOAD DUP1 SWAP2 SUB SWAP1 RETURN JUMPDEST PUSH2 0x121 PUSH1 0x4 DUP1 CALLDATASIZE SUB DUP2 ADD SWAP1 PUSH2 0x11C SWAP2 SWAP1 PUSH2 0x2DF JUMP JUMPDEST PUSH2 0x1B1 JUMP JUMPDEST STOP JUMPDEST PUSH2 0x12B PUSH2 0x1BB JUMP JUMPDEST STOP JUMPDEST PUSH2 0x135 PUSH2 0x1D6 JUMP JUMPDEST STOP JUMPDEST PUSH2 0x13F PUSH2 0x1F1 JUMP JUMPDEST PUSH1 0x40 MLOAD PUSH2 0x14C SWAP2 SWAP1 PUSH2 0x293 JUMP JUMPDEST PUSH1 0x40 MLOAD DUP1 SWAP2 SUB SWAP1 RETURN JUMPDEST PUSH2 0x15D PUSH2 0x1F7 JUMP JUMPDEST STOP JUMPDEST PUSH2 0x167 PUSH2 0x212 JUMP JUMPDEST PUSH1 0x40 MLOAD PUSH2 0x174 SWAP2 SWAP1 PUSH2 0x327 JUMP JUMPDEST PUSH1 0x40 MLOAD DUP1 SWAP2 SUB SWAP1 RETURN JUMPDEST PUSH1 0x1 DUP1 PUSH1 0x0 DUP3 DUP3 SLOAD PUSH2 0x18F SWAP2 SWAP1 PUSH2 0x371 JUMP JUMPDEST SWAP3 POP POP DUP2 SWAP1 SSTORE POP JUMP JUMPDEST PUSH1 0x0 SLOAD DUP2 JUMP JUMPDEST PUSH1 0x0 PUSH1 0x1 SLOAD SWAP1 POP SWAP1 JUMP JUMPDEST PUSH1 0x0 DUP1 SLOAD SWAP1 POP SWAP1 JUMP JUMPDEST DUP1 PUSH1 0x0 DUP2 SWAP1 SSTORE POP POP JUMP JUMPDEST PUSH1 0x1 DUP1 PUSH1 0x0 DUP3 DUP3 SLOAD PUSH2 0x1CD SWAP2 SWAP1 PUSH2 0x3B4 JUMP JUMPDEST SWAP3 POP POP DUP2 SWAP1 SSTORE POP JUMP JUMPDEST PUSH1 0x1 PUSH1 0x0 DUP1 DUP3 DUP3 SLOAD PUSH2 0x1E8 SWAP2 SWAP1 PUSH2 0x3F8 JUMP JUMPDEST SWAP3 POP POP DUP2 SWAP1 SSTORE POP JUMP JUMPDEST PUSH1 0x1 SLOAD DUP2 JUMP JUMPDEST PUSH1 0x1 PUSH1 0x0 DUP1 DUP3 DUP3 SLOAD PUSH2 0x209 SWAP2 SWAP1 PUSH2 0x42C JUMP JUMPDEST SWAP3 POP POP DUP2 SWAP1 SSTORE POP JUMP JUMPDEST PUSH1 0x0 DUP1 PUSH2 0x21D PUSH2 0x1A8 JUMP JUMPDEST SWAP1 POP PUSH1 0x0 PUSH1 0x2 DUP3 PUSH2 0x22E SWAP2 SWAP1 PUSH2 0x48F JUMP JUMPDEST SUB PUSH2 0x23D JUMPI PUSH1 0x1 SWAP2 POP POP PUSH2 0x243 JUMP JUMPDEST PUSH1 0x0 SWAP2 POP POP JUMPDEST SWAP1 JUMP JUMPDEST PUSH1 0x0 DUP2 SWAP1 POP SWAP2 SWAP1 POP JUMP JUMPDEST PUSH2 0x259 DUP2 PUSH2 0x246 JUMP JUMPDEST DUP3 MSTORE POP POP JUMP JUMPDEST PUSH1 0x0 PUSH1 0x20 DUP3 ADD SWAP1 POP PUSH2 0x274 PUSH1 0x0 DUP4 ADD DUP5 PUSH2 0x250 JUMP JUMPDEST SWAP3 SWAP2 POP POP JUMP JUMPDEST PUSH1 0x0 DUP2 SWAP1 POP SWAP2 SWAP1 POP JUMP JUMPDEST PUSH2 0x28D DUP2 PUSH2 0x27A JUMP JUMPDEST DUP3 MSTORE POP POP JUMP JUMPDEST PUSH1 0x0 PUSH1 0x20 DUP3 ADD SWAP1 POP PUSH2 0x2A8 PUSH1 0x0 DUP4 ADD DUP5 PUSH2 0x284 JUMP JUMPDEST SWAP3 SWAP2 POP POP JUMP JUMPDEST PUSH1 0x0 DUP1 REVERT JUMPDEST PUSH2 0x2BC DUP2 PUSH2 0x246 JUMP JUMPDEST DUP2 EQ PUSH2 0x2C7 JUMPI PUSH1 0x0 DUP1 REVERT JUMPDEST POP JUMP JUMPDEST PUSH1 0x0 DUP2 CALLDATALOAD SWAP1 POP PUSH2 0x2D9 DUP2 PUSH2 0x2B3 JUMP JUMPDEST SWAP3 SWAP2 POP POP JUMP JUMPDEST PUSH1 0x0 PUSH1 0x20 DUP3 DUP5 SUB SLT ISZERO PUSH2 0x2F5 JUMPI PUSH2 0x2F4 PUSH2 0x2AE JUMP JUMPDEST JUMPDEST PUSH1 0x0 PUSH2 0x303 DUP5 DUP3 DUP6 ADD PUSH2 0x2CA JUMP JUMPDEST SWAP2 POP POP SWAP3 SWAP2 POP POP JUMP JUMPDEST PUSH1 0x0 DUP2 ISZERO ISZERO SWAP1 POP SWAP2 SWAP1 POP JUMP JUMPDEST PUSH2 0x321 DUP2 PUSH2 0x30C JUMP JUMPDEST DUP3 MSTORE POP POP JUMP JUMPDEST PUSH1 0x0 PUSH1 0x20 DUP3 ADD SWAP1 POP PUSH2 0x33C PUSH1 0x0 DUP4 ADD DUP5 PUSH2 0x318 JUMP JUMPDEST SWAP3 SWAP2 POP POP JUMP JUMPDEST PUSH32 0x4E487B7100000000000000000000000000000000000000000000000000000000 PUSH1 0x0 MSTORE PUSH1 0x11 PUSH1 0x4 MSTORE PUSH1 0x24 PUSH1 0x0 REVERT JUMPDEST PUSH1 0x0 PUSH2 0x37C DUP3 PUSH2 0x27A JUMP JUMPDEST SWAP2 POP PUSH2 0x387 DUP4 PUSH2 0x27A JUMP JUMPDEST SWAP3 POP DUP3 DUP3 SUB SWAP1 POP DUP2 DUP2 SLT PUSH1 0x0 DUP5 SLT AND DUP3 DUP3 SGT PUSH1 0x0 DUP6 SLT ISZERO AND OR ISZERO PUSH2 0x3AE JUMPI PUSH2 0x3AD PUSH2 0x342 JUMP JUMPDEST JUMPDEST SWAP3 SWAP2 POP POP JUMP JUMPDEST PUSH1 0x0 PUSH2 0x3BF DUP3 PUSH2 0x27A JUMP JUMPDEST SWAP2 POP PUSH2 0x3CA DUP4 PUSH2 0x27A JUMP JUMPDEST SWAP3 POP DUP3 DUP3 ADD SWAP1 POP DUP3 DUP2 SLT ISZERO PUSH1 0x0 DUP4 SLT AND DUP4 DUP3 SLT PUSH1 0x0 DUP5 SLT ISZERO AND OR ISZERO PUSH2 0x3F2 JUMPI PUSH2 0x3F1 PUSH2 0x342 JUMP JUMPDEST JUMPDEST SWAP3 SWAP2 POP POP JUMP JUMPDEST PUSH1 0x0 PUSH2 0x403 DUP3 PUSH2 0x246 JUMP JUMPDEST SWAP2 POP PUSH2 0x40E DUP4 PUSH2 0x246 JUMP JUMPDEST SWAP3 POP DUP3 DUP3 ADD SWAP1 POP DUP1 DUP3 GT ISZERO PUSH2 0x426 JUMPI PUSH2 0x425 PUSH2 0x342 JUMP JUMPDEST JUMPDEST SWAP3 SWAP2 POP POP JUMP JUMPDEST PUSH1 0x0 PUSH2 0x437 DUP3 PUSH2 0x246 JUMP JUMPDEST SWAP2 POP PUSH2 0x442 DUP4 PUSH2 0x246 JUMP JUMPDEST SWAP3 POP DUP3 DUP3 SUB SWAP1 POP DUP2 DUP2 GT ISZERO PUSH2 0x45A JUMPI PUSH2 0x459 PUSH2 0x342 JUMP JUMPDEST JUMPDEST SWAP3 SWAP2 POP POP JUMP JUMPDEST PUSH32 0x4E487B7100000000000000000000000000000000000000000000000000000000 PUSH1 0x0 MSTORE PUSH1 0x12 PUSH1 0x4 MSTORE PUSH1 0x24 PUSH1 0x0 REVERT JUMPDEST PUSH1 0x0 PUSH2 0x49A DUP3 PUSH2 0x246 JUMP JUMPDEST SWAP2 POP PUSH2 0x4A5 DUP4 PUSH2 0x246 JUMP JUMPDEST SWAP3 POP DUP3 PUSH2 0x4B5 JUMPI PUSH2 0x4B4 PUSH2 0x460 JUMP JUMPDEST JUMPDEST DUP3 DUP3 MOD SWAP1 POP SWAP3 SWAP2 POP POP JUMP INVALID LOG2 PUSH5 0x6970667358 0x22 SLT KECCAK256 SELFBALANCE PUSH19 0xD97509A5C66C5C5659DDC7E3240C6E60A999D4 DUP7 0x4B 0xDC 0x4E 0xE8 0xEA DUP12 SWAP8 0xAA 0xF 0x22 PUSH5 0x736F6C6343 STOP ADDMOD SLT STOP CALLER "},"methodIdentifiers":{"count()":"06661abd","decreaseCount()":"e834cbb3","decreaseUnderCount()":"04156f4f","getUnderCount()":"1c417b26","increaseCount()":"abd1b73d","increaseUnderCount()":"846c5502","isCountEven()":"eb91e510","retrieve()":"2e64cec1","store(uint256)":"6057361d","underCount()":"bd7b0496"}}}}}