{
  "_format": "hh-sol-artifact-1",
  "contractName": "StudentRegistry",
  "sourceName": "contracts/StudentRegistry.sol",
  "abi": [
    {
      "anonymous": false,
      "inputs": [
        {
          "indexed": true,
          "internalType": "address",
          "name": "studentAddress",
          "type": "address"
        },
        {
          "indexed": false,
          "internalType": "uint256",
          "name": "studentId",
          "type": "uint256"
        },
        {
          "indexed": false,
          "internalType": "string",
          "name": "name",
          "type": "string"
        },
        {
          "indexed": false,
          "internalType": "uint8",
          "name": "age",
          "type": "uint8"
        },
        {
          "indexed": false,
          "internalType": "bool",
          "name": "isActive",
          "type": "bool"
        },
        {
          "indexed": false,
          "internalType": "bool",
          "name": "isPunctual",
          "type": "bool"
        }
      ],
      "name": "StudentAction",
      "type": "event"
    },
    {
      "anonymous": false,
      "inputs": [
        {
          "indexed": true,
          "internalType": "address",
          "name": "studentAddress",
          "type": "address"
        },
        {
          "indexed": false,
          "internalType": "uint256",
          "name": "studentId",
          "type": "uint256"
        }
      ],
      "name": "StudentDeleted",
      "type": "event"
    },
    {
      "inputs": [
        {
          "internalType": "address",
          "name": "_studentAddress",
          "type": "address"
        },
        {
          "internalType": "string",
          "name": "_name",
          "type": "string"
        },
        {
          "internalType": "uint8",
          "name": "_age",
          "type": "uint8"
        },
        {
          "internalType": "bool",
          "name": "_isActive",
          "type": "bool"
        },
        {
          "internalType": "bool",
          "name": "_isPunctual",
          "type": "bool"
        }
      ],
      "name": "addStudent",
      "outputs": [],
      "stateMutability": "nonpayable",
      "type": "function"
    },
    {
      "inputs": [
        {
          "internalType": "address",
          "name": "newOwner",
          "type": "address"
        }
      ],
      "name": "changeOwner",
      "outputs": [],
      "stateMutability": "nonpayable",
      "type": "function"
    },
    {
      "inputs": [
        {
          "internalType": "address",
          "name": "_studentAddress",
          "type": "address"
        },
        {
          "internalType": "uint256",
          "name": "_studentId",
          "type": "uint256"
        }
      ],
      "name": "deleteStudent",
      "outputs": [],
      "stateMutability": "nonpayable",
      "type": "function"
    },
    {
      "inputs": [],
      "name": "getCurrentOwner",
      "outputs": [
        {
          "internalType": "address",
          "name": "",
          "type": "address"
        }
      ],
      "stateMutability": "view",
      "type": "function"
    },
    {
      "inputs": [
        {
          "internalType": "address",
          "name": "_studentAddress",
          "type": "address"
        },
        {
          "internalType": "uint256",
          "name": "_studentId",
          "type": "uint256"
        }
      ],
      "name": "getStudentDetails",
      "outputs": [
        {
          "components": [
            {
              "internalType": "uint256",
              "name": "studentId",
              "type": "uint256"
            },
            {
              "internalType": "string",
              "name": "name",
              "type": "string"
            },
            {
              "internalType": "uint8",
              "name": "age",
              "type": "uint8"
            },
            {
              "internalType": "bool",
              "name": "isActive",
              "type": "bool"
            },
            {
              "internalType": "bool",
              "name": "isPunctual",
              "type": "bool"
            }
          ],
          "internalType": "struct StudentRegistry.Student",
          "name": "",
          "type": "tuple"
        }
      ],
      "stateMutability": "view",
      "type": "function"
    },
    {
      "inputs": [],
      "name": "studentsCounter",
      "outputs": [
        {
          "internalType": "uint256",
          "name": "",
          "type": "uint256"
        }
      ],
      "stateMutability": "view",
      "type": "function"
    },
    {
      "inputs": [
        {
          "internalType": "address",
          "name": "",
          "type": "address"
        },
        {
          "internalType": "uint256",
          "name": "",
          "type": "uint256"
        }
      ],
      "name": "studentsMap",
      "outputs": [
        {
          "internalType": "uint256",
          "name": "studentId",
          "type": "uint256"
        },
        {
          "internalType": "string",
          "name": "name",
          "type": "string"
        },
        {
          "internalType": "uint8",
          "name": "age",
          "type": "uint8"
        },
        {
          "internalType": "bool",
          "name": "isActive",
          "type": "bool"
        },
        {
          "internalType": "bool",
          "name": "isPunctual",
          "type": "bool"
        }
      ],
      "stateMutability": "view",
      "type": "function"
    },
    {
      "inputs": [
        {
          "internalType": "address",
          "name": "_studentAddress",
          "type": "address"
        },
        {
          "internalType": "uint256",
          "name": "_studentId",
          "type": "uint256"
        },
        {
          "internalType": "string",
          "name": "_name",
          "type": "string"
        },
        {
          "internalType": "uint8",
          "name": "_age",
          "type": "uint8"
        },
        {
          "internalType": "bool",
          "name": "_isActive",
          "type": "bool"
        },
        {
          "internalType": "bool",
          "name": "_isPunctual",
          "type": "bool"
        }
      ],
      "name": "updateStudent",
      "outputs": [],
      "stateMutability": "nonpayable",
      "type": "function"
    }
  ],
  "bytecode": "0x60806040523480156200001157600080fd5b50600073ffffffffffffffffffffffffffffffffffffffff163373ffffffffffffffffffffffffffffffffffffffff160362000084576040517f08c379a00000000000000000000000000000000000000000000000000000000081526004016200007b906200012b565b60405180910390fd5b336000806101000a81548173ffffffffffffffffffffffffffffffffffffffff021916908373ffffffffffffffffffffffffffffffffffffffff1602179055506200014d565b600082825260208201905092915050565b7f6465706c6f7965722063616e6e6f742062652061646472203000000000000000600082015250565b600062000113601983620000ca565b91506200012082620000db565b602082019050919050565b60006020820190508181036000830152620001468162000104565b9050919050565b611a3f806200015d6000396000f3fe608060405234801561001057600080fd5b50600436106100885760003560e01c8063a18a186b1161005b578063a18a186b14610129578063a6f9dae114610147578063df0fc62314610163578063e628b37f1461017f57610088565b8063283e20c71461008d5780635271ae9d146100c157806363c2d691146100f157806368ec20cd1461010d575b600080fd5b6100a760048036038101906100a29190610f1d565b61019d565b6040516100b8959493929190611033565b60405180910390f35b6100db60048036038101906100d69190610f1d565b61028f565b6040516100e8919061117a565b60405180910390f35b61010b60048036038101906101069190611329565b61045a565b005b610127600480360381019061012291906113c0565b61076d565b005b610131610a61565b60405161013e9190611478565b60405180910390f35b610161600480360381019061015c9190611493565b610a8a565b005b61017d60048036038101906101789190610f1d565b610bcc565b005b610187610ddc565b60405161019491906114c0565b60405180910390f35b6002602052816000526040600020602052806000526040600020600091509150508060000154908060010180546101d39061150a565b80601f01602080910402602001604051908101604052809291908181526020018280546101ff9061150a565b801561024c5780601f106102215761010080835404028352916020019161024c565b820191906000526020600020905b81548152906001019060200180831161022f57829003601f168201915b5050505050908060020160009054906101000a900460ff16908060020160019054906101000a900460ff16908060020160029054906101000a900460ff16905085565b610297610de2565b82600073ffffffffffffffffffffffffffffffffffffffff168173ffffffffffffffffffffffffffffffffffffffff1603610307576040517f08c379a00000000000000000000000000000000000000000000000000000000081526004016102fe90611587565b60405180910390fd5b600260008573ffffffffffffffffffffffffffffffffffffffff1673ffffffffffffffffffffffffffffffffffffffff16815260200190815260200160002060008481526020019081526020016000206040518060a00160405290816000820154815260200160018201805461037c9061150a565b80601f01602080910402602001604051908101604052809291908181526020018280546103a89061150a565b80156103f55780601f106103ca576101008083540402835291602001916103f5565b820191906000526020600020905b8154815290600101906020018083116103d857829003601f168201915b505050505081526020016002820160009054906101000a900460ff1660ff1660ff1681526020016002820160019054906101000a900460ff161515151581526020016002820160029054906101000a900460ff16151515158152505091505092915050565b838360ff1660008251036104a3576040517f08c379a000000000000000000000000000000000000000000000000000000000815260040161049a906115f3565b60405180910390fd5b60128110156104e7576040517f08c379a00000000000000000000000000000000000000000000000000000000081526004016104de9061165f565b60405180910390fd5b60008054906101000a900473ffffffffffffffffffffffffffffffffffffffff1673ffffffffffffffffffffffffffffffffffffffff163373ffffffffffffffffffffffffffffffffffffffff1614610575576040517f08c379a000000000000000000000000000000000000000000000000000000000815260040161056c906116cb565b60405180910390fd5b86600073ffffffffffffffffffffffffffffffffffffffff168173ffffffffffffffffffffffffffffffffffffffff16036105e5576040517f08c379a00000000000000000000000000000000000000000000000000000000081526004016105dc90611587565b60405180910390fd5b600160008154809291906105f89061171a565b91905055506000600154905060006040518060a001604052808381526020018a81526020018960ff1681526020018815158152602001871515815250905080600260008c73ffffffffffffffffffffffffffffffffffffffff1673ffffffffffffffffffffffffffffffffffffffff16815260200190815260200160002060008481526020019081526020016000206000820151816000015560208201518160010190816106a6919061190e565b5060408201518160020160006101000a81548160ff021916908360ff16021790555060608201518160020160016101000a81548160ff02191690831515021790555060808201518160020160026101000a81548160ff0219169083151502179055509050508973ffffffffffffffffffffffffffffffffffffffff167f357657320edb393d318264c0e4408ff95dfc721f5195b896f544ba8bac31f2ab838b8b8b8b604051610759959493929190611033565b60405180910390a250505050505050505050565b838360ff1660008251036107b6576040517f08c379a00000000000000000000000000000000000000000000000000000000081526004016107ad906115f3565b60405180910390fd5b60128110156107fa576040517f08c379a00000000000000000000000000000000000000000000000000000000081526004016107f19061165f565b60405180910390fd5b60008054906101000a900473ffffffffffffffffffffffffffffffffffffffff1673ffffffffffffffffffffffffffffffffffffffff163373ffffffffffffffffffffffffffffffffffffffff1614610888576040517f08c379a000000000000000000000000000000000000000000000000000000000815260040161087f906116cb565b60405180910390fd5b87600073ffffffffffffffffffffffffffffffffffffffff168173ffffffffffffffffffffffffffffffffffffffff16036108f8576040517f08c379a00000000000000000000000000000000000000000000000000000000081526004016108ef90611587565b60405180910390fd5b60006040518060a001604052808a81526020018981526020018860ff1681526020018715158152602001861515815250905080600260008c73ffffffffffffffffffffffffffffffffffffffff1673ffffffffffffffffffffffffffffffffffffffff16815260200190815260200160002060008b815260200190815260200160002060008201518160000155602082015181600101908161099a919061190e565b5060408201518160020160006101000a81548160ff021916908360ff16021790555060608201518160020160016101000a81548160ff02191690831515021790555060808201518160020160026101000a81548160ff0219169083151502179055509050508973ffffffffffffffffffffffffffffffffffffffff167f357657320edb393d318264c0e4408ff95dfc721f5195b896f544ba8bac31f2ab8a8a8a8a8a604051610a4d959493929190611033565b60405180910390a250505050505050505050565b60008060009054906101000a900473ffffffffffffffffffffffffffffffffffffffff16905090565b60008054906101000a900473ffffffffffffffffffffffffffffffffffffffff1673ffffffffffffffffffffffffffffffffffffffff163373ffffffffffffffffffffffffffffffffffffffff1614610b18576040517f08c379a0000000000000000000000000000000000000000000000000000000008152600401610b0f906116cb565b60405180910390fd5b80600073ffffffffffffffffffffffffffffffffffffffff168173ffffffffffffffffffffffffffffffffffffffff1603610b88576040517f08c379a0000000000000000000000000000000000000000000000000000000008152600401610b7f90611587565b60405180910390fd5b816000806101000a81548173ffffffffffffffffffffffffffffffffffffffff021916908373ffffffffffffffffffffffffffffffffffffffff1602179055505050565b60008054906101000a900473ffffffffffffffffffffffffffffffffffffffff1673ffffffffffffffffffffffffffffffffffffffff163373ffffffffffffffffffffffffffffffffffffffff1614610c5a576040517f08c379a0000000000000000000000000000000000000000000000000000000008152600401610c51906116cb565b60405180910390fd5b81600073ffffffffffffffffffffffffffffffffffffffff168173ffffffffffffffffffffffffffffffffffffffff1603610cca576040517f08c379a0000000000000000000000000000000000000000000000000000000008152600401610cc190611587565b60405180910390fd5b600260008473ffffffffffffffffffffffffffffffffffffffff1673ffffffffffffffffffffffffffffffffffffffff1681526020019081526020016000206000838152602001908152602001600020600080820160009055600182016000610d339190610e18565b6002820160006101000a81549060ff02191690556002820160016101000a81549060ff02191690556002820160026101000a81549060ff0219169055505060016000815480929190610d84906119e0565b91905055508273ffffffffffffffffffffffffffffffffffffffff167f87a9409304a832d230fba7119d3ad70914f2be93e3854db0b20ca8a1400c6e2583604051610dcf91906114c0565b60405180910390a2505050565b60015481565b6040518060a001604052806000815260200160608152602001600060ff1681526020016000151581526020016000151581525090565b508054610e249061150a565b6000825580601f10610e365750610e55565b601f016020900490600052602060002090810190610e549190610e58565b5b50565b5b80821115610e71576000816000905550600101610e59565b5090565b6000604051905090565b600080fd5b600080fd5b600073ffffffffffffffffffffffffffffffffffffffff82169050919050565b6000610eb482610e89565b9050919050565b610ec481610ea9565b8114610ecf57600080fd5b50565b600081359050610ee181610ebb565b92915050565b6000819050919050565b610efa81610ee7565b8114610f0557600080fd5b50565b600081359050610f1781610ef1565b92915050565b60008060408385031215610f3457610f33610e7f565b5b6000610f4285828601610ed2565b9250506020610f5385828601610f08565b9150509250929050565b610f6681610ee7565b82525050565b600081519050919050565b600082825260208201905092915050565b60005b83811015610fa6578082015181840152602081019050610f8b565b60008484015250505050565b6000601f19601f8301169050919050565b6000610fce82610f6c565b610fd88185610f77565b9350610fe8818560208601610f88565b610ff181610fb2565b840191505092915050565b600060ff82169050919050565b61101281610ffc565b82525050565b60008115159050919050565b61102d81611018565b82525050565b600060a0820190506110486000830188610f5d565b818103602083015261105a8187610fc3565b90506110696040830186611009565b6110766060830185611024565b6110836080830184611024565b9695505050505050565b61109681610ee7565b82525050565b600082825260208201905092915050565b60006110b882610f6c565b6110c2818561109c565b93506110d2818560208601610f88565b6110db81610fb2565b840191505092915050565b6110ef81610ffc565b82525050565b6110fe81611018565b82525050565b600060a08301600083015161111c600086018261108d565b506020830151848203602086015261113482826110ad565b915050604083015161114960408601826110e6565b50606083015161115c60608601826110f5565b50608083015161116f60808601826110f5565b508091505092915050565b600060208201905081810360008301526111948184611104565b905092915050565b600080fd5b600080fd5b7f4e487b7100000000000000000000000000000000000000000000000000000000600052604160045260246000fd5b6111de82610fb2565b810181811067ffffffffffffffff821117156111fd576111fc6111a6565b5b80604052505050565b6000611210610e75565b905061121c82826111d5565b919050565b600067ffffffffffffffff82111561123c5761123b6111a6565b5b61124582610fb2565b9050602081019050919050565b82818337600083830152505050565b600061127461126f84611221565b611206565b9050828152602081018484840111156112905761128f6111a1565b5b61129b848285611252565b509392505050565b600082601f8301126112b8576112b761119c565b5b81356112c8848260208601611261565b91505092915050565b6112da81610ffc565b81146112e557600080fd5b50565b6000813590506112f7816112d1565b92915050565b61130681611018565b811461131157600080fd5b50565b600081359050611323816112fd565b92915050565b600080600080600060a0868803121561134557611344610e7f565b5b600061135388828901610ed2565b955050602086013567ffffffffffffffff81111561137457611373610e84565b5b611380888289016112a3565b9450506040611391888289016112e8565b93505060606113a288828901611314565b92505060806113b388828901611314565b9150509295509295909350565b60008060008060008060c087890312156113dd576113dc610e7f565b5b60006113eb89828a01610ed2565b96505060206113fc89828a01610f08565b955050604087013567ffffffffffffffff81111561141d5761141c610e84565b5b61142989828a016112a3565b945050606061143a89828a016112e8565b935050608061144b89828a01611314565b92505060a061145c89828a01611314565b9150509295509295509295565b61147281610ea9565b82525050565b600060208201905061148d6000830184611469565b92915050565b6000602082840312156114a9576114a8610e7f565b5b60006114b784828501610ed2565b91505092915050565b60006020820190506114d56000830184610f5d565b92915050565b7f4e487b7100000000000000000000000000000000000000000000000000000000600052602260045260246000fd5b6000600282049050600182168061152257607f821691505b602082108103611535576115346114db565b5b50919050565b7f6e6577206f776e65722063616e6e6f742062652061646472657373207a65726f600082015250565b6000611571602083610f77565b915061157c8261153b565b602082019050919050565b600060208201905081810360008301526115a081611564565b9050919050565b7f6e616d65206c656e677468206d757374206265203e3d20330000000000000000600082015250565b60006115dd601883610f77565b91506115e8826115a7565b602082019050919050565b6000602082019050818103600083015261160c816115d0565b9050919050565b7f796f75206d757374206e6f7420626520756e6465726167650000000000000000600082015250565b6000611649601883610f77565b915061165482611613565b602082019050919050565b600060208201905081810360008301526116788161163c565b9050919050565b7f63616c6c6572206e6f74206f776e657200000000000000000000000000000000600082015250565b60006116b5601083610f77565b91506116c08261167f565b602082019050919050565b600060208201905081810360008301526116e4816116a8565b9050919050565b7f4e487b7100000000000000000000000000000000000000000000000000000000600052601160045260246000fd5b600061172582610ee7565b91507fffffffffffffffffffffffffffffffffffffffffffffffffffffffffffffffff8203611757576117566116eb565b5b600182019050919050565b60008190508160005260206000209050919050565b60006020601f8301049050919050565b600082821b905092915050565b6000600883026117c47fffffffffffffffffffffffffffffffffffffffffffffffffffffffffffffffff82611787565b6117ce8683611787565b95508019841693508086168417925050509392505050565b6000819050919050565b600061180b61180661180184610ee7565b6117e6565b610ee7565b9050919050565b6000819050919050565b611825836117f0565b61183961183182611812565b848454611794565b825550505050565b600090565b61184e611841565b61185981848461181c565b505050565b5b8181101561187d57611872600082611846565b60018101905061185f565b5050565b601f8211156118c25761189381611762565b61189c84611777565b810160208510156118ab578190505b6118bf6118b785611777565b83018261185e565b50505b505050565b600082821c905092915050565b60006118e5600019846008026118c7565b1980831691505092915050565b60006118fe83836118d4565b9150826002028217905092915050565b61191782610f6c565b67ffffffffffffffff8111156119305761192f6111a6565b5b61193a825461150a565b611945828285611881565b600060209050601f8311600181146119785760008415611966578287015190505b61197085826118f2565b8655506119d8565b601f19841661198686611762565b60005b828110156119ae57848901518255600182019150602085019450602081019050611989565b868310156119cb57848901516119c7601f8916826118d4565b8355505b6001600288020188555050505b505050505050565b60006119eb82610ee7565b9150600082036119fe576119fd6116eb565b5b60018203905091905056fea2646970667358221220cffdcb2f1f82e0242504b86206e28ee8fe688da05975f80519df6bb1a55db58464736f6c63430008120033",
  "linkReferences": {},
  "deployedLinkReferences": {}
}