{
  "_format": "hh-sol-artifact-1",
  "contractName": "ETHBankContract",
  "sourceName": "contracts/ETHBankContract.sol",
  "abi": [
    {
      "inputs": [],
      "stateMutability": "nonpayable",
      "type": "constructor"
    },
    {
      "anonymous": false,
      "inputs": [
        {
          "indexed": false,
          "internalType": "address",
          "name": "_address",
          "type": "address"
        },
        {
          "indexed": false,
          "internalType": "uint256",
          "name": "_amount",
          "type": "uint256"
        },
        {
          "indexed": false,
          "internalType": "uint256",
          "name": "_prevBalance",
          "type": "uint256"
        },
        {
          "indexed": false,
          "internalType": "uint256",
          "name": "_currentBalance",
          "type": "uint256"
        }
      ],
      "name": "Deposit",
      "type": "event"
    },
    {
      "anonymous": false,
      "inputs": [
        {
          "indexed": false,
          "internalType": "address",
          "name": "_address",
          "type": "address"
        },
        {
          "indexed": false,
          "internalType": "uint256",
          "name": "_amount",
          "type": "uint256"
        },
        {
          "indexed": false,
          "internalType": "uint256",
          "name": "_prevBalance",
          "type": "uint256"
        },
        {
          "indexed": false,
          "internalType": "uint256",
          "name": "_currentBalance",
          "type": "uint256"
        }
      ],
      "name": "EmergencyWithdraw",
      "type": "event"
    },
    {
      "anonymous": false,
      "inputs": [
        {
          "indexed": false,
          "internalType": "address",
          "name": "_address",
          "type": "address"
        },
        {
          "indexed": false,
          "internalType": "uint256",
          "name": "_amount",
          "type": "uint256"
        },
        {
          "indexed": false,
          "internalType": "uint256",
          "name": "_prevBalance",
          "type": "uint256"
        },
        {
          "indexed": false,
          "internalType": "uint256",
          "name": "_currentBalance",
          "type": "uint256"
        }
      ],
      "name": "Withdraw",
      "type": "event"
    },
    {
      "anonymous": false,
      "inputs": [
        {
          "indexed": false,
          "internalType": "address",
          "name": "_address",
          "type": "address"
        },
        {
          "indexed": false,
          "internalType": "uint256",
          "name": "_amount",
          "type": "uint256"
        },
        {
          "indexed": false,
          "internalType": "uint256",
          "name": "_prevBalance",
          "type": "uint256"
        },
        {
          "indexed": false,
          "internalType": "uint256",
          "name": "_currentBalance",
          "type": "uint256"
        }
      ],
      "name": "WithdrawAll",
      "type": "event"
    },
    {
      "inputs": [],
      "name": "depositETH",
      "outputs": [],
      "stateMutability": "payable",
      "type": "function"
    },
    {
      "inputs": [
        {
          "internalType": "address",
          "name": "",
          "type": "address"
        }
      ],
      "name": "ethBalances",
      "outputs": [
        {
          "internalType": "uint256",
          "name": "",
          "type": "uint256"
        }
      ],
      "stateMutability": "view",
      "type": "function"
    },
    {
      "inputs": [],
      "name": "getContractEthBalance",
      "outputs": [
        {
          "internalType": "uint256",
          "name": "",
          "type": "uint256"
        }
      ],
      "stateMutability": "view",
      "type": "function"
    },
    {
      "inputs": [],
      "name": "ownerOnlyWithdraw",
      "outputs": [],
      "stateMutability": "nonpayable",
      "type": "function"
    },
    {
      "inputs": [],
      "name": "withdrawAllETH",
      "outputs": [],
      "stateMutability": "nonpayable",
      "type": "function"
    },
    {
      "inputs": [
        {
          "internalType": "uint256",
          "name": "amount",
          "type": "uint256"
        }
      ],
      "name": "withdrawETH",
      "outputs": [],
      "stateMutability": "nonpayable",
      "type": "function"
    },
    {
      "stateMutability": "payable",
      "type": "receive"
    }
  ],
  "bytecode": "0x608060405234801561001057600080fd5b50336000806101000a81548173ffffffffffffffffffffffffffffffffffffffff021916908373ffffffffffffffffffffffffffffffffffffffff160217905550611475806100606000396000f3fe6080604052600436106100595760003560e01c80633868bfb3146100865780633cfba0e31461009d5780634de57d75146100da57806390386bbf14610105578063f14210a61461011c578063f6326fb31461014557610081565b366100815761007f60405180606001604052806034815260200161140c6034913961014f565b005b600080fd5b34801561009257600080fd5b5061009b6101e8565b005b3480156100a957600080fd5b506100c460048036038101906100bf9190610d22565b6104db565b6040516100d19190610d68565b60405180910390f35b3480156100e657600080fd5b506100ef6104f3565b6040516100fc9190610d68565b60405180910390f35b34801561011157600080fd5b5061011a6104fb565b005b34801561012857600080fd5b50610143600480360381019061013e9190610daf565b610738565b005b61014d610985565b005b6101e5816040516024016101639190610e6c565b6040516020818303038152906040527f41304fac000000000000000000000000000000000000000000000000000000007bffffffffffffffffffffffffffffffffffffffffffffffffffffffff19166020820180517bffffffffffffffffffffffffffffffffffffffffffffffffffffffff8381831617835250505050610bd3565b50565b60008054906101000a900473ffffffffffffffffffffffffffffffffffffffff1673ffffffffffffffffffffffffffffffffffffffff163373ffffffffffffffffffffffffffffffffffffffff1614610276576040517f08c379a000000000000000000000000000000000000000000000000000000000815260040161026d90610f00565b60405180910390fd5b6000600160008060009054906101000a900473ffffffffffffffffffffffffffffffffffffffff1673ffffffffffffffffffffffffffffffffffffffff1673ffffffffffffffffffffffffffffffffffffffff16815260200190815260200160002054905060006102e56104f3565b905080600160008060009054906101000a900473ffffffffffffffffffffffffffffffffffffffff1673ffffffffffffffffffffffffffffffffffffffff1673ffffffffffffffffffffffffffffffffffffffff1681526020019081526020016000208190555060008060009054906101000a900473ffffffffffffffffffffffffffffffffffffffff1673ffffffffffffffffffffffffffffffffffffffff168260405161039390610f51565b60006040518083038185875af1925050503d80600081146103d0576040519150601f19603f3d011682016040523d82523d6000602084013e6103d5565b606091505b5050905080610419576040517f08c379a000000000000000000000000000000000000000000000000000000000815260040161041090610fd8565b60405180910390fd5b7f2369db1bafee945aee5630782f4a170682e3f8188d8dc247a4c73eb8c9e692d260008054906101000a900473ffffffffffffffffffffffffffffffffffffffff168385600160008060009054906101000a900473ffffffffffffffffffffffffffffffffffffffff1673ffffffffffffffffffffffffffffffffffffffff1673ffffffffffffffffffffffffffffffffffffffff168152602001908152602001600020546040516104ce9493929190611007565b60405180910390a1505050565b60016020528060005260406000206000915090505481565b600047905090565b6000600160003373ffffffffffffffffffffffffffffffffffffffff1673ffffffffffffffffffffffffffffffffffffffff16815260200190815260200160002054905060008103610582576040517f08c379a000000000000000000000000000000000000000000000000000000000815260040161057990611098565b60405180910390fd5b6000600160003373ffffffffffffffffffffffffffffffffffffffff1673ffffffffffffffffffffffffffffffffffffffff1681526020019081526020016000205490506000600160003373ffffffffffffffffffffffffffffffffffffffff1673ffffffffffffffffffffffffffffffffffffffff1681526020019081526020016000208190555060003373ffffffffffffffffffffffffffffffffffffffff168260405161063190610f51565b60006040518083038185875af1925050503d806000811461066e576040519150601f19603f3d011682016040523d82523d6000602084013e610673565b606091505b50509050806106b7576040517f08c379a00000000000000000000000000000000000000000000000000000000081526004016106ae90611104565b60405180910390fd5b7f378a6cc4c3b5fb663530a3211d489f2c433f35f38922f3ec036670af23bffc56338385600160003373ffffffffffffffffffffffffffffffffffffffff1673ffffffffffffffffffffffffffffffffffffffff1681526020019081526020016000205460405161072b9493929190611007565b60405180910390a1505050565b6000600160003373ffffffffffffffffffffffffffffffffffffffff1673ffffffffffffffffffffffffffffffffffffffff168152602001908152602001600020549050600082116107bf576040517f08c379a00000000000000000000000000000000000000000000000000000000081526004016107b690611196565b60405180910390fd5b80821115610802576040517f08c379a00000000000000000000000000000000000000000000000000000000081526004016107f990611098565b60405180910390fd5b81600160003373ffffffffffffffffffffffffffffffffffffffff1673ffffffffffffffffffffffffffffffffffffffff168152602001908152602001600020600082825461085191906111e5565b9250508190555060003373ffffffffffffffffffffffffffffffffffffffff168360405161087e90610f51565b60006040518083038185875af1925050503d80600081146108bb576040519150601f19603f3d011682016040523d82523d6000602084013e6108c0565b606091505b5050905080610904576040517f08c379a00000000000000000000000000000000000000000000000000000000081526004016108fb90611265565b60405180910390fd5b7f02f25270a4d87bea75db541cdfe559334a275b4a233520ed6c0a2429667cca94338484600160003373ffffffffffffffffffffffffffffffffffffffff1673ffffffffffffffffffffffffffffffffffffffff168152602001908152602001600020546040516109789493929190611007565b60405180910390a1505050565b6000600160003373ffffffffffffffffffffffffffffffffffffffff1673ffffffffffffffffffffffffffffffffffffffff168152602001908152602001600020549050600034905060008103610a11576040517f08c379a0000000000000000000000000000000000000000000000000000000008152600401610a08906112d1565b60405180910390fd5b80600160003373ffffffffffffffffffffffffffffffffffffffff1673ffffffffffffffffffffffffffffffffffffffff1681526020019081526020016000206000828254610a6091906112f1565b9250508190555060003073ffffffffffffffffffffffffffffffffffffffff1682604051610a8d90610f51565b60006040518083038185875af1925050503d8060008114610aca576040519150601f19603f3d011682016040523d82523d6000602084013e610acf565b606091505b50509050610b126040518060400160405280601581526020017f74786e207375636365737320686572653a5f5f5f5f000000000000000000000081525082610bed565b80610b52576040517f08c379a0000000000000000000000000000000000000000000000000000000008152600401610b4990611371565b60405180910390fd5b7f36af321ec8d3c75236829c5317affd40ddb308863a1236d2d277a4025cccee1e338385600160003373ffffffffffffffffffffffffffffffffffffffff1673ffffffffffffffffffffffffffffffffffffffff16815260200190815260200160002054604051610bc69493929190611007565b60405180910390a1505050565b610bea81610be2610c89610caa565b63ffffffff16565b50565b610c858282604051602401610c039291906113ac565b6040516020818303038152906040527fc3b55635000000000000000000000000000000000000000000000000000000007bffffffffffffffffffffffffffffffffffffffffffffffffffffffff19166020820180517bffffffffffffffffffffffffffffffffffffffffffffffffffffffff8381831617835250505050610bd3565b5050565b60006a636f6e736f6c652e6c6f679050600080835160208501845afa505050565b610cb5819050919050565b610cbd6113dc565b565b600080fd5b600073ffffffffffffffffffffffffffffffffffffffff82169050919050565b6000610cef82610cc4565b9050919050565b610cff81610ce4565b8114610d0a57600080fd5b50565b600081359050610d1c81610cf6565b92915050565b600060208284031215610d3857610d37610cbf565b5b6000610d4684828501610d0d565b91505092915050565b6000819050919050565b610d6281610d4f565b82525050565b6000602082019050610d7d6000830184610d59565b92915050565b610d8c81610d4f565b8114610d9757600080fd5b50565b600081359050610da981610d83565b92915050565b600060208284031215610dc557610dc4610cbf565b5b6000610dd384828501610d9a565b91505092915050565b600081519050919050565b600082825260208201905092915050565b60005b83811015610e16578082015181840152602081019050610dfb565b60008484015250505050565b6000601f19601f8301169050919050565b6000610e3e82610ddc565b610e488185610de7565b9350610e58818560208601610df8565b610e6181610e22565b840191505092915050565b60006020820190508181036000830152610e868184610e33565b905092915050565b7f6f6e6c79206f776e65722063616e2063616c6c20656d657267656e637920776960008201527f7468647261770000000000000000000000000000000000000000000000000000602082015250565b6000610eea602683610de7565b9150610ef582610e8e565b604082019050919050565b60006020820190508181036000830152610f1981610edd565b9050919050565b600081905092915050565b50565b6000610f3b600083610f20565b9150610f4682610f2b565b600082019050919050565b6000610f5c82610f2e565b9150819050919050565b7f6661696c656420746f20776974686472617720616c6c2045544820746f206f7760008201527f6e65720000000000000000000000000000000000000000000000000000000000602082015250565b6000610fc2602383610de7565b9150610fcd82610f66565b604082019050919050565b60006020820190508181036000830152610ff181610fb5565b9050919050565b61100181610ce4565b82525050565b600060808201905061101c6000830187610ff8565b6110296020830186610d59565b6110366040830185610d59565b6110436060830184610d59565b95945050505050565b7f696e73756666696369656e742062616c616e6365000000000000000000000000600082015250565b6000611082601483610de7565b915061108d8261104c565b602082019050919050565b600060208201905081810360008301526110b181611075565b9050919050565b7f6661696c656420746f20776974686472617720616c6c20455448000000000000600082015250565b60006110ee601a83610de7565b91506110f9826110b8565b602082019050919050565b6000602082019050818103600083015261111d816110e1565b9050919050565b7f616d6f756e7420746f207769746864726177206d75737420626520677265617460008201527f6572207468616e20300000000000000000000000000000000000000000000000602082015250565b6000611180602983610de7565b915061118b82611124565b604082019050919050565b600060208201905081810360008301526111af81611173565b9050919050565b7f4e487b7100000000000000000000000000000000000000000000000000000000600052601160045260246000fd5b60006111f082610d4f565b91506111fb83610d4f565b9250828203905081811115611213576112126111b6565b5b92915050565b7f6661696c656420746f2077697468647261772045544800000000000000000000600082015250565b600061124f601683610de7565b915061125a82611219565b602082019050919050565b6000602082019050818103600083015261127e81611242565b9050919050565b7f796f75206d757374206164642045544800000000000000000000000000000000600082015250565b60006112bb601083610de7565b91506112c682611285565b602082019050919050565b600060208201905081810360008301526112ea816112ae565b9050919050565b60006112fc82610d4f565b915061130783610d4f565b925082820190508082111561131f5761131e6111b6565b5b92915050565b7f6661696c656420746f206465706f736974204554480000000000000000000000600082015250565b600061135b601583610de7565b915061136682611325565b602082019050919050565b6000602082019050818103600083015261138a8161134e565b9050919050565b60008115159050919050565b6113a681611391565b82525050565b600060408201905081810360008301526113c68185610e33565b90506113d5602083018461139d565b9392505050565b7f4e487b7100000000000000000000000000000000000000000000000000000000600052605160045260246000fdfe524543454956453a20455448207265636569766564206e6f77206173206465706f73697445544820666e2069732063616c6c6564a26469706673582212203535a117e7576c71ffcc14f984d44e9c0bbc556a7026d994bf8c6d1262f6ee9c64736f6c63430008120033",
  "linkReferences": {},
  "deployedLinkReferences": {}
}