{
  "_format": "hh-sol-artifact-1",
  "contractName": "ETHBankContract",
  "sourceName": "contracts/ETHBankContract.sol",
  "abi": [
    {
      "inputs": [],
      "stateMutability": "nonpayable",
      "type": "constructor"
    },
    {
      "anonymous": false,
      "inputs": [
        {
          "indexed": false,
          "internalType": "address",
          "name": "_address",
          "type": "address"
        },
        {
          "indexed": false,
          "internalType": "uint256",
          "name": "_amount",
          "type": "uint256"
        },
        {
          "indexed": false,
          "internalType": "uint256",
          "name": "_prevBalance",
          "type": "uint256"
        },
        {
          "indexed": false,
          "internalType": "uint256",
          "name": "_currentBalance",
          "type": "uint256"
        }
      ],
      "name": "Deposit",
      "type": "event"
    },
    {
      "anonymous": false,
      "inputs": [
        {
          "indexed": false,
          "internalType": "address",
          "name": "_address",
          "type": "address"
        },
        {
          "indexed": false,
          "internalType": "uint256",
          "name": "_amount",
          "type": "uint256"
        },
        {
          "indexed": false,
          "internalType": "uint256",
          "name": "_prevBalance",
          "type": "uint256"
        },
        {
          "indexed": false,
          "internalType": "uint256",
          "name": "_currentBalance",
          "type": "uint256"
        }
      ],
      "name": "EmergencyWithdraw",
      "type": "event"
    },
    {
      "anonymous": false,
      "inputs": [
        {
          "indexed": false,
          "internalType": "address",
          "name": "_address",
          "type": "address"
        },
        {
          "indexed": false,
          "internalType": "uint256",
          "name": "_amount",
          "type": "uint256"
        },
        {
          "indexed": false,
          "internalType": "uint256",
          "name": "_prevBalance",
          "type": "uint256"
        },
        {
          "indexed": false,
          "internalType": "uint256",
          "name": "_currentBalance",
          "type": "uint256"
        }
      ],
      "name": "Withdraw",
      "type": "event"
    },
    {
      "anonymous": false,
      "inputs": [
        {
          "indexed": false,
          "internalType": "address",
          "name": "_address",
          "type": "address"
        },
        {
          "indexed": false,
          "internalType": "uint256",
          "name": "_amount",
          "type": "uint256"
        },
        {
          "indexed": false,
          "internalType": "uint256",
          "name": "_prevBalance",
          "type": "uint256"
        },
        {
          "indexed": false,
          "internalType": "uint256",
          "name": "_currentBalance",
          "type": "uint256"
        }
      ],
      "name": "WithdrawAll",
      "type": "event"
    },
    {
      "inputs": [],
      "name": "depositETH",
      "outputs": [],
      "stateMutability": "payable",
      "type": "function"
    },
    {
      "inputs": [
        {
          "internalType": "address",
          "name": "",
          "type": "address"
        }
      ],
      "name": "ethBalances",
      "outputs": [
        {
          "internalType": "uint256",
          "name": "",
          "type": "uint256"
        }
      ],
      "stateMutability": "view",
      "type": "function"
    },
    {
      "inputs": [],
      "name": "getContractEthBalance",
      "outputs": [
        {
          "internalType": "uint256",
          "name": "",
          "type": "uint256"
        }
      ],
      "stateMutability": "view",
      "type": "function"
    },
    {
      "inputs": [],
      "name": "owner",
      "outputs": [
        {
          "internalType": "address",
          "name": "",
          "type": "address"
        }
      ],
      "stateMutability": "view",
      "type": "function"
    },
    {
      "inputs": [],
      "name": "ownerOnlyWithdraw",
      "outputs": [],
      "stateMutability": "nonpayable",
      "type": "function"
    },
    {
      "inputs": [],
      "name": "withdrawAllETH",
      "outputs": [],
      "stateMutability": "nonpayable",
      "type": "function"
    },
    {
      "inputs": [
        {
          "internalType": "uint256",
          "name": "amount",
          "type": "uint256"
        }
      ],
      "name": "withdrawETH",
      "outputs": [],
      "stateMutability": "nonpayable",
      "type": "function"
    },
    {
      "stateMutability": "payable",
      "type": "receive"
    }
  ],
  "bytecode": "0x608060405234801561001057600080fd5b50336000806101000a81548173ffffffffffffffffffffffffffffffffffffffff021916908373ffffffffffffffffffffffffffffffffffffffff1602179055506114fa806100606000396000f3fe6080604052600436106100745760003560e01c80638da5cb5b1161004e5780638da5cb5b1461012057806390386bbf1461014b578063f14210a614610162578063f6326fb31461018b5761009c565b80633868bfb3146100a15780633cfba0e3146100b85780634de57d75146100f55761009c565b3661009c5761009a60405180606001604052806034815260200161149160349139610195565b005b600080fd5b3480156100ad57600080fd5b506100b661022e565b005b3480156100c457600080fd5b506100df60048036038101906100da9190610d8c565b610521565b6040516100ec9190610dd2565b60405180910390f35b34801561010157600080fd5b5061010a610539565b6040516101179190610dd2565b60405180910390f35b34801561012c57600080fd5b50610135610541565b6040516101429190610dfc565b60405180910390f35b34801561015757600080fd5b50610160610565565b005b34801561016e57600080fd5b5061018960048036038101906101849190610e43565b6107a2565b005b6101936109ef565b005b61022b816040516024016101a99190610f00565b6040516020818303038152906040527f41304fac000000000000000000000000000000000000000000000000000000007bffffffffffffffffffffffffffffffffffffffffffffffffffffffff19166020820180517bffffffffffffffffffffffffffffffffffffffffffffffffffffffff8381831617835250505050610c3d565b50565b60008054906101000a900473ffffffffffffffffffffffffffffffffffffffff1673ffffffffffffffffffffffffffffffffffffffff163373ffffffffffffffffffffffffffffffffffffffff16146102bc576040517f08c379a00000000000000000000000000000000000000000000000000000000081526004016102b390610f94565b60405180910390fd5b6000600160008060009054906101000a900473ffffffffffffffffffffffffffffffffffffffff1673ffffffffffffffffffffffffffffffffffffffff1673ffffffffffffffffffffffffffffffffffffffff168152602001908152602001600020549050600061032b610539565b905080600160008060009054906101000a900473ffffffffffffffffffffffffffffffffffffffff1673ffffffffffffffffffffffffffffffffffffffff1673ffffffffffffffffffffffffffffffffffffffff1681526020019081526020016000208190555060008060009054906101000a900473ffffffffffffffffffffffffffffffffffffffff1673ffffffffffffffffffffffffffffffffffffffff16826040516103d990610fe5565b60006040518083038185875af1925050503d8060008114610416576040519150601f19603f3d011682016040523d82523d6000602084013e61041b565b606091505b505090508061045f576040517f08c379a00000000000000000000000000000000000000000000000000000000081526004016104569061106c565b60405180910390fd5b7f2369db1bafee945aee5630782f4a170682e3f8188d8dc247a4c73eb8c9e692d260008054906101000a900473ffffffffffffffffffffffffffffffffffffffff168385600160008060009054906101000a900473ffffffffffffffffffffffffffffffffffffffff1673ffffffffffffffffffffffffffffffffffffffff1673ffffffffffffffffffffffffffffffffffffffff16815260200190815260200160002054604051610514949392919061108c565b60405180910390a1505050565b60016020528060005260406000206000915090505481565b600047905090565b60008054906101000a900473ffffffffffffffffffffffffffffffffffffffff1681565b6000600160003373ffffffffffffffffffffffffffffffffffffffff1673ffffffffffffffffffffffffffffffffffffffff168152602001908152602001600020549050600081036105ec576040517f08c379a00000000000000000000000000000000000000000000000000000000081526004016105e39061111d565b60405180910390fd5b6000600160003373ffffffffffffffffffffffffffffffffffffffff1673ffffffffffffffffffffffffffffffffffffffff1681526020019081526020016000205490506000600160003373ffffffffffffffffffffffffffffffffffffffff1673ffffffffffffffffffffffffffffffffffffffff1681526020019081526020016000208190555060003373ffffffffffffffffffffffffffffffffffffffff168260405161069b90610fe5565b60006040518083038185875af1925050503d80600081146106d8576040519150601f19603f3d011682016040523d82523d6000602084013e6106dd565b606091505b5050905080610721576040517f08c379a000000000000000000000000000000000000000000000000000000000815260040161071890611189565b60405180910390fd5b7f378a6cc4c3b5fb663530a3211d489f2c433f35f38922f3ec036670af23bffc56338385600160003373ffffffffffffffffffffffffffffffffffffffff1673ffffffffffffffffffffffffffffffffffffffff16815260200190815260200160002054604051610795949392919061108c565b60405180910390a1505050565b6000600160003373ffffffffffffffffffffffffffffffffffffffff1673ffffffffffffffffffffffffffffffffffffffff16815260200190815260200160002054905060008211610829576040517f08c379a00000000000000000000000000000000000000000000000000000000081526004016108209061121b565b60405180910390fd5b8082111561086c576040517f08c379a00000000000000000000000000000000000000000000000000000000081526004016108639061111d565b60405180910390fd5b81600160003373ffffffffffffffffffffffffffffffffffffffff1673ffffffffffffffffffffffffffffffffffffffff16815260200190815260200160002060008282546108bb919061126a565b9250508190555060003373ffffffffffffffffffffffffffffffffffffffff16836040516108e890610fe5565b60006040518083038185875af1925050503d8060008114610925576040519150601f19603f3d011682016040523d82523d6000602084013e61092a565b606091505b505090508061096e576040517f08c379a0000000000000000000000000000000000000000000000000000000008152600401610965906112ea565b60405180910390fd5b7f02f25270a4d87bea75db541cdfe559334a275b4a233520ed6c0a2429667cca94338484600160003373ffffffffffffffffffffffffffffffffffffffff1673ffffffffffffffffffffffffffffffffffffffff168152602001908152602001600020546040516109e2949392919061108c565b60405180910390a1505050565b6000600160003373ffffffffffffffffffffffffffffffffffffffff1673ffffffffffffffffffffffffffffffffffffffff168152602001908152602001600020549050600034905060008103610a7b576040517f08c379a0000000000000000000000000000000000000000000000000000000008152600401610a7290611356565b60405180910390fd5b80600160003373ffffffffffffffffffffffffffffffffffffffff1673ffffffffffffffffffffffffffffffffffffffff1681526020019081526020016000206000828254610aca9190611376565b9250508190555060003073ffffffffffffffffffffffffffffffffffffffff1682604051610af790610fe5565b60006040518083038185875af1925050503d8060008114610b34576040519150601f19603f3d011682016040523d82523d6000602084013e610b39565b606091505b50509050610b7c6040518060400160405280601581526020017f74786e207375636365737320686572653a5f5f5f5f000000000000000000000081525082610c57565b80610bbc576040517f08c379a0000000000000000000000000000000000000000000000000000000008152600401610bb3906113f6565b60405180910390fd5b7f36af321ec8d3c75236829c5317affd40ddb308863a1236d2d277a4025cccee1e338385600160003373ffffffffffffffffffffffffffffffffffffffff1673ffffffffffffffffffffffffffffffffffffffff16815260200190815260200160002054604051610c30949392919061108c565b60405180910390a1505050565b610c5481610c4c610cf3610d14565b63ffffffff16565b50565b610cef8282604051602401610c6d929190611431565b6040516020818303038152906040527fc3b55635000000000000000000000000000000000000000000000000000000007bffffffffffffffffffffffffffffffffffffffffffffffffffffffff19166020820180517bffffffffffffffffffffffffffffffffffffffffffffffffffffffff8381831617835250505050610c3d565b5050565b60006a636f6e736f6c652e6c6f679050600080835160208501845afa505050565b610d1f819050919050565b610d27611461565b565b600080fd5b600073ffffffffffffffffffffffffffffffffffffffff82169050919050565b6000610d5982610d2e565b9050919050565b610d6981610d4e565b8114610d7457600080fd5b50565b600081359050610d8681610d60565b92915050565b600060208284031215610da257610da1610d29565b5b6000610db084828501610d77565b91505092915050565b6000819050919050565b610dcc81610db9565b82525050565b6000602082019050610de76000830184610dc3565b92915050565b610df681610d4e565b82525050565b6000602082019050610e116000830184610ded565b92915050565b610e2081610db9565b8114610e2b57600080fd5b50565b600081359050610e3d81610e17565b92915050565b600060208284031215610e5957610e58610d29565b5b6000610e6784828501610e2e565b91505092915050565b600081519050919050565b600082825260208201905092915050565b60005b83811015610eaa578082015181840152602081019050610e8f565b60008484015250505050565b6000601f19601f8301169050919050565b6000610ed282610e70565b610edc8185610e7b565b9350610eec818560208601610e8c565b610ef581610eb6565b840191505092915050565b60006020820190508181036000830152610f1a8184610ec7565b905092915050565b7f6f6e6c79206f776e65722063616e2063616c6c20656d657267656e637920776960008201527f7468647261770000000000000000000000000000000000000000000000000000602082015250565b6000610f7e602683610e7b565b9150610f8982610f22565b604082019050919050565b60006020820190508181036000830152610fad81610f71565b9050919050565b600081905092915050565b50565b6000610fcf600083610fb4565b9150610fda82610fbf565b600082019050919050565b6000610ff082610fc2565b9150819050919050565b7f6661696c656420746f20776974686472617720616c6c2045544820746f206f7760008201527f6e65720000000000000000000000000000000000000000000000000000000000602082015250565b6000611056602383610e7b565b915061106182610ffa565b604082019050919050565b6000602082019050818103600083015261108581611049565b9050919050565b60006080820190506110a16000830187610ded565b6110ae6020830186610dc3565b6110bb6040830185610dc3565b6110c86060830184610dc3565b95945050505050565b7f696e73756666696369656e742062616c616e6365000000000000000000000000600082015250565b6000611107601483610e7b565b9150611112826110d1565b602082019050919050565b60006020820190508181036000830152611136816110fa565b9050919050565b7f6661696c656420746f20776974686472617720616c6c20455448000000000000600082015250565b6000611173601a83610e7b565b915061117e8261113d565b602082019050919050565b600060208201905081810360008301526111a281611166565b9050919050565b7f616d6f756e7420746f207769746864726177206d75737420626520677265617460008201527f6572207468616e20300000000000000000000000000000000000000000000000602082015250565b6000611205602983610e7b565b9150611210826111a9565b604082019050919050565b60006020820190508181036000830152611234816111f8565b9050919050565b7f4e487b7100000000000000000000000000000000000000000000000000000000600052601160045260246000fd5b600061127582610db9565b915061128083610db9565b92508282039050818111156112985761129761123b565b5b92915050565b7f6661696c656420746f2077697468647261772045544800000000000000000000600082015250565b60006112d4601683610e7b565b91506112df8261129e565b602082019050919050565b60006020820190508181036000830152611303816112c7565b9050919050565b7f796f75206d757374206164642045544800000000000000000000000000000000600082015250565b6000611340601083610e7b565b915061134b8261130a565b602082019050919050565b6000602082019050818103600083015261136f81611333565b9050919050565b600061138182610db9565b915061138c83610db9565b92508282019050808211156113a4576113a361123b565b5b92915050565b7f6661696c656420746f206465706f736974204554480000000000000000000000600082015250565b60006113e0601583610e7b565b91506113eb826113aa565b602082019050919050565b6000602082019050818103600083015261140f816113d3565b9050919050565b60008115159050919050565b61142b81611416565b82525050565b6000604082019050818103600083015261144b8185610ec7565b905061145a6020830184611422565b9392505050565b7f4e487b7100000000000000000000000000000000000000000000000000000000600052605160045260246000fdfe524543454956453a20455448207265636569766564206e6f77206173206465706f73697445544820666e2069732063616c6c6564a26469706673582212204c4b07add1eea66a968db2397b9ce3f11ced9203ae6acc642a975c13e50bc98864736f6c63430008120033",
  "linkReferences": {},
  "deployedLinkReferences": {}
}