{
  "_format": "hh-sol-artifact-1",
  "contractName": "ETHBankContract",
  "sourceName": "contracts/ETHBankContract.sol",
  "abi": [
    {
      "inputs": [],
      "stateMutability": "nonpayable",
      "type": "constructor"
    },
    {
      "anonymous": false,
      "inputs": [
        {
          "indexed": false,
          "internalType": "address",
          "name": "_address",
          "type": "address"
        },
        {
          "indexed": false,
          "internalType": "uint256",
          "name": "_amount",
          "type": "uint256"
        },
        {
          "indexed": false,
          "internalType": "uint256",
          "name": "_prevBalance",
          "type": "uint256"
        },
        {
          "indexed": false,
          "internalType": "uint256",
          "name": "_currentBalance",
          "type": "uint256"
        }
      ],
      "name": "Deposit",
      "type": "event"
    },
    {
      "anonymous": false,
      "inputs": [
        {
          "indexed": false,
          "internalType": "address",
          "name": "_address",
          "type": "address"
        },
        {
          "indexed": false,
          "internalType": "uint256",
          "name": "_amount",
          "type": "uint256"
        },
        {
          "indexed": false,
          "internalType": "uint256",
          "name": "_prevBalance",
          "type": "uint256"
        },
        {
          "indexed": false,
          "internalType": "uint256",
          "name": "_currentBalance",
          "type": "uint256"
        }
      ],
      "name": "EmergencyWithdraw",
      "type": "event"
    },
    {
      "anonymous": false,
      "inputs": [
        {
          "indexed": false,
          "internalType": "address",
          "name": "_address",
          "type": "address"
        },
        {
          "indexed": false,
          "internalType": "uint256",
          "name": "_amount",
          "type": "uint256"
        },
        {
          "indexed": false,
          "internalType": "uint256",
          "name": "_prevBalance",
          "type": "uint256"
        },
        {
          "indexed": false,
          "internalType": "uint256",
          "name": "_currentBalance",
          "type": "uint256"
        }
      ],
      "name": "Withdraw",
      "type": "event"
    },
    {
      "anonymous": false,
      "inputs": [
        {
          "indexed": false,
          "internalType": "address",
          "name": "_address",
          "type": "address"
        },
        {
          "indexed": false,
          "internalType": "uint256",
          "name": "_amount",
          "type": "uint256"
        },
        {
          "indexed": false,
          "internalType": "uint256",
          "name": "_prevBalance",
          "type": "uint256"
        },
        {
          "indexed": false,
          "internalType": "uint256",
          "name": "_currentBalance",
          "type": "uint256"
        }
      ],
      "name": "WithdrawAll",
      "type": "event"
    },
    {
      "inputs": [],
      "name": "depositETH",
      "outputs": [],
      "stateMutability": "payable",
      "type": "function"
    },
    {
      "inputs": [
        {
          "internalType": "address",
          "name": "",
          "type": "address"
        }
      ],
      "name": "ethBalances",
      "outputs": [
        {
          "internalType": "uint256",
          "name": "",
          "type": "uint256"
        }
      ],
      "stateMutability": "view",
      "type": "function"
    },
    {
      "inputs": [],
      "name": "getContractEthBalance",
      "outputs": [
        {
          "internalType": "uint256",
          "name": "",
          "type": "uint256"
        }
      ],
      "stateMutability": "view",
      "type": "function"
    },
    {
      "inputs": [],
      "name": "owner",
      "outputs": [
        {
          "internalType": "address",
          "name": "",
          "type": "address"
        }
      ],
      "stateMutability": "view",
      "type": "function"
    },
    {
      "inputs": [],
      "name": "ownerOnlyWithdraw",
      "outputs": [],
      "stateMutability": "nonpayable",
      "type": "function"
    },
    {
      "inputs": [],
      "name": "withdrawAllETH",
      "outputs": [],
      "stateMutability": "nonpayable",
      "type": "function"
    },
    {
      "inputs": [
        {
          "internalType": "uint256",
          "name": "amount",
          "type": "uint256"
        }
      ],
      "name": "withdrawETH",
      "outputs": [],
      "stateMutability": "nonpayable",
      "type": "function"
    },
    {
      "stateMutability": "payable",
      "type": "receive"
    }
  ],
  "bytecode": "0x608060405234801561001057600080fd5b50336000806101000a81548173ffffffffffffffffffffffffffffffffffffffff021916908373ffffffffffffffffffffffffffffffffffffffff1602179055506113d4806100606000396000f3fe6080604052600436106100745760003560e01c80638da5cb5b1161004e5780638da5cb5b1461012057806390386bbf1461014b578063f14210a614610162578063f6326fb31461018b5761009c565b80633868bfb3146100a15780633cfba0e3146100b85780634de57d75146100f55761009c565b3661009c5761009a60405180606001604052806034815260200161136b60349139610195565b005b600080fd5b3480156100ad57600080fd5b506100b661022e565b005b3480156100c457600080fd5b506100df60048036038101906100da9190610cb1565b610521565b6040516100ec9190610cf7565b60405180910390f35b34801561010157600080fd5b5061010a610539565b6040516101179190610cf7565b60405180910390f35b34801561012c57600080fd5b50610135610541565b6040516101429190610d21565b60405180910390f35b34801561015757600080fd5b50610160610565565b005b34801561016e57600080fd5b5061018960048036038101906101849190610d68565b6107a2565b005b6101936109ef565b005b61022b816040516024016101a99190610e25565b6040516020818303038152906040527f41304fac000000000000000000000000000000000000000000000000000000007bffffffffffffffffffffffffffffffffffffffffffffffffffffffff19166020820180517bffffffffffffffffffffffffffffffffffffffffffffffffffffffff8381831617835250505050610bfe565b50565b60008054906101000a900473ffffffffffffffffffffffffffffffffffffffff1673ffffffffffffffffffffffffffffffffffffffff163373ffffffffffffffffffffffffffffffffffffffff16146102bc576040517f08c379a00000000000000000000000000000000000000000000000000000000081526004016102b390610eb9565b60405180910390fd5b6000600160008060009054906101000a900473ffffffffffffffffffffffffffffffffffffffff1673ffffffffffffffffffffffffffffffffffffffff1673ffffffffffffffffffffffffffffffffffffffff168152602001908152602001600020549050600061032b610539565b905080600160008060009054906101000a900473ffffffffffffffffffffffffffffffffffffffff1673ffffffffffffffffffffffffffffffffffffffff1673ffffffffffffffffffffffffffffffffffffffff1681526020019081526020016000208190555060008060009054906101000a900473ffffffffffffffffffffffffffffffffffffffff1673ffffffffffffffffffffffffffffffffffffffff16826040516103d990610f0a565b60006040518083038185875af1925050503d8060008114610416576040519150601f19603f3d011682016040523d82523d6000602084013e61041b565b606091505b505090508061045f576040517f08c379a000000000000000000000000000000000000000000000000000000000815260040161045690610f91565b60405180910390fd5b7f2369db1bafee945aee5630782f4a170682e3f8188d8dc247a4c73eb8c9e692d260008054906101000a900473ffffffffffffffffffffffffffffffffffffffff168385600160008060009054906101000a900473ffffffffffffffffffffffffffffffffffffffff1673ffffffffffffffffffffffffffffffffffffffff1673ffffffffffffffffffffffffffffffffffffffff168152602001908152602001600020546040516105149493929190610fb1565b60405180910390a1505050565b60016020528060005260406000206000915090505481565b600047905090565b60008054906101000a900473ffffffffffffffffffffffffffffffffffffffff1681565b6000600160003373ffffffffffffffffffffffffffffffffffffffff1673ffffffffffffffffffffffffffffffffffffffff168152602001908152602001600020549050600081036105ec576040517f08c379a00000000000000000000000000000000000000000000000000000000081526004016105e390611042565b60405180910390fd5b6000600160003373ffffffffffffffffffffffffffffffffffffffff1673ffffffffffffffffffffffffffffffffffffffff1681526020019081526020016000205490506000600160003373ffffffffffffffffffffffffffffffffffffffff1673ffffffffffffffffffffffffffffffffffffffff1681526020019081526020016000208190555060003373ffffffffffffffffffffffffffffffffffffffff168260405161069b90610f0a565b60006040518083038185875af1925050503d80600081146106d8576040519150601f19603f3d011682016040523d82523d6000602084013e6106dd565b606091505b5050905080610721576040517f08c379a0000000000000000000000000000000000000000000000000000000008152600401610718906110ae565b60405180910390fd5b7f378a6cc4c3b5fb663530a3211d489f2c433f35f38922f3ec036670af23bffc56338385600160003373ffffffffffffffffffffffffffffffffffffffff1673ffffffffffffffffffffffffffffffffffffffff168152602001908152602001600020546040516107959493929190610fb1565b60405180910390a1505050565b6000600160003373ffffffffffffffffffffffffffffffffffffffff1673ffffffffffffffffffffffffffffffffffffffff16815260200190815260200160002054905060008211610829576040517f08c379a000000000000000000000000000000000000000000000000000000000815260040161082090611140565b60405180910390fd5b8082111561086c576040517f08c379a000000000000000000000000000000000000000000000000000000000815260040161086390611042565b60405180910390fd5b81600160003373ffffffffffffffffffffffffffffffffffffffff1673ffffffffffffffffffffffffffffffffffffffff16815260200190815260200160002060008282546108bb919061118f565b9250508190555060003373ffffffffffffffffffffffffffffffffffffffff16836040516108e890610f0a565b60006040518083038185875af1925050503d8060008114610925576040519150601f19603f3d011682016040523d82523d6000602084013e61092a565b606091505b505090508061096e576040517f08c379a00000000000000000000000000000000000000000000000000000000081526004016109659061120f565b60405180910390fd5b7f02f25270a4d87bea75db541cdfe559334a275b4a233520ed6c0a2429667cca94338484600160003373ffffffffffffffffffffffffffffffffffffffff1673ffffffffffffffffffffffffffffffffffffffff168152602001908152602001600020546040516109e29493929190610fb1565b60405180910390a1505050565b6000600160003373ffffffffffffffffffffffffffffffffffffffff1673ffffffffffffffffffffffffffffffffffffffff168152602001908152602001600020549050600034905060008103610a7b576040517f08c379a0000000000000000000000000000000000000000000000000000000008152600401610a729061127b565b60405180910390fd5b80600160003373ffffffffffffffffffffffffffffffffffffffff1673ffffffffffffffffffffffffffffffffffffffff1681526020019081526020016000206000828254610aca919061129b565b9250508190555060003073ffffffffffffffffffffffffffffffffffffffff1682604051610af790610f0a565b60006040518083038185875af1925050503d8060008114610b34576040519150601f19603f3d011682016040523d82523d6000602084013e610b39565b606091505b5050905080610b7d576040517f08c379a0000000000000000000000000000000000000000000000000000000008152600401610b749061131b565b60405180910390fd5b7f36af321ec8d3c75236829c5317affd40ddb308863a1236d2d277a4025cccee1e338385600160003373ffffffffffffffffffffffffffffffffffffffff1673ffffffffffffffffffffffffffffffffffffffff16815260200190815260200160002054604051610bf19493929190610fb1565b60405180910390a1505050565b610c1581610c0d610c18610c39565b63ffffffff16565b50565b60006a636f6e736f6c652e6c6f679050600080835160208501845afa505050565b610c44819050919050565b610c4c61133b565b565b600080fd5b600073ffffffffffffffffffffffffffffffffffffffff82169050919050565b6000610c7e82610c53565b9050919050565b610c8e81610c73565b8114610c9957600080fd5b50565b600081359050610cab81610c85565b92915050565b600060208284031215610cc757610cc6610c4e565b5b6000610cd584828501610c9c565b91505092915050565b6000819050919050565b610cf181610cde565b82525050565b6000602082019050610d0c6000830184610ce8565b92915050565b610d1b81610c73565b82525050565b6000602082019050610d366000830184610d12565b92915050565b610d4581610cde565b8114610d5057600080fd5b50565b600081359050610d6281610d3c565b92915050565b600060208284031215610d7e57610d7d610c4e565b5b6000610d8c84828501610d53565b91505092915050565b600081519050919050565b600082825260208201905092915050565b60005b83811015610dcf578082015181840152602081019050610db4565b60008484015250505050565b6000601f19601f8301169050919050565b6000610df782610d95565b610e018185610da0565b9350610e11818560208601610db1565b610e1a81610ddb565b840191505092915050565b60006020820190508181036000830152610e3f8184610dec565b905092915050565b7f6f6e6c79206f776e65722063616e2063616c6c20656d657267656e637920776960008201527f7468647261770000000000000000000000000000000000000000000000000000602082015250565b6000610ea3602683610da0565b9150610eae82610e47565b604082019050919050565b60006020820190508181036000830152610ed281610e96565b9050919050565b600081905092915050565b50565b6000610ef4600083610ed9565b9150610eff82610ee4565b600082019050919050565b6000610f1582610ee7565b9150819050919050565b7f6661696c656420746f20776974686472617720616c6c2045544820746f206f7760008201527f6e65720000000000000000000000000000000000000000000000000000000000602082015250565b6000610f7b602383610da0565b9150610f8682610f1f565b604082019050919050565b60006020820190508181036000830152610faa81610f6e565b9050919050565b6000608082019050610fc66000830187610d12565b610fd36020830186610ce8565b610fe06040830185610ce8565b610fed6060830184610ce8565b95945050505050565b7f696e73756666696369656e742062616c616e6365000000000000000000000000600082015250565b600061102c601483610da0565b915061103782610ff6565b602082019050919050565b6000602082019050818103600083015261105b8161101f565b9050919050565b7f6661696c656420746f20776974686472617720616c6c20455448000000000000600082015250565b6000611098601a83610da0565b91506110a382611062565b602082019050919050565b600060208201905081810360008301526110c78161108b565b9050919050565b7f616d6f756e7420746f207769746864726177206d75737420626520677265617460008201527f6572207468616e20300000000000000000000000000000000000000000000000602082015250565b600061112a602983610da0565b9150611135826110ce565b604082019050919050565b600060208201905081810360008301526111598161111d565b9050919050565b7f4e487b7100000000000000000000000000000000000000000000000000000000600052601160045260246000fd5b600061119a82610cde565b91506111a583610cde565b92508282039050818111156111bd576111bc611160565b5b92915050565b7f6661696c656420746f2077697468647261772045544800000000000000000000600082015250565b60006111f9601683610da0565b9150611204826111c3565b602082019050919050565b60006020820190508181036000830152611228816111ec565b9050919050565b7f796f75206d757374206164642045544800000000000000000000000000000000600082015250565b6000611265601083610da0565b91506112708261122f565b602082019050919050565b6000602082019050818103600083015261129481611258565b9050919050565b60006112a682610cde565b91506112b183610cde565b92508282019050808211156112c9576112c8611160565b5b92915050565b7f6661696c656420746f206465706f736974204554480000000000000000000000600082015250565b6000611305601583610da0565b9150611310826112cf565b602082019050919050565b60006020820190508181036000830152611334816112f8565b9050919050565b7f4e487b7100000000000000000000000000000000000000000000000000000000600052605160045260246000fdfe524543454956453a20455448207265636569766564206e6f77206173206465706f73697445544820666e2069732063616c6c6564a2646970667358221220521dcc83d6292bca2a0e505aa145ab698ca9ae990a3575724d3788969b5d583b64736f6c63430008120033",
  "linkReferences": {},
  "deployedLinkReferences": {}
}