{
  "_format": "hh-sol-artifact-1",
  "contractName": "BWCContract",
  "sourceName": "contracts/BwcContract.sol",
  "abi": [
    {
      "inputs": [
        {
          "internalType": "string",
          "name": "name_",
          "type": "string"
        },
        {
          "internalType": "string",
          "name": "symbol_",
          "type": "string"
        },
        {
          "internalType": "uint8",
          "name": "decimal_",
          "type": "uint8"
        }
      ],
      "stateMutability": "nonpayable",
      "type": "constructor"
    },
    {
      "inputs": [
        {
          "internalType": "address",
          "name": "from",
          "type": "address"
        },
        {
          "internalType": "address",
          "name": "to",
          "type": "address"
        },
        {
          "internalType": "uint256",
          "name": "value",
          "type": "uint256"
        }
      ],
      "name": "InsufficientBalance",
      "type": "error"
    },
    {
      "inputs": [
        {
          "internalType": "address",
          "name": "invalidAddress",
          "type": "address"
        }
      ],
      "name": "InvalidAddress",
      "type": "error"
    },
    {
      "inputs": [
        {
          "internalType": "address",
          "name": "_spender",
          "type": "address"
        },
        {
          "internalType": "uint256",
          "name": "_value",
          "type": "uint256"
        }
      ],
      "name": "approve",
      "outputs": [
        {
          "internalType": "bool",
          "name": "",
          "type": "bool"
        }
      ],
      "stateMutability": "nonpayable",
      "type": "function"
    },
    {
      "inputs": [
        {
          "internalType": "address",
          "name": "_spender",
          "type": "address"
        },
        {
          "internalType": "bool",
          "name": "_canTransfer",
          "type": "bool"
        }
      ],
      "name": "approveAll",
      "outputs": [
        {
          "internalType": "bool",
          "name": "",
          "type": "bool"
        }
      ],
      "stateMutability": "nonpayable",
      "type": "function"
    },
    {
      "inputs": [
        {
          "internalType": "address",
          "name": "account",
          "type": "address"
        }
      ],
      "name": "balanceOf",
      "outputs": [
        {
          "internalType": "uint256",
          "name": "balance",
          "type": "uint256"
        }
      ],
      "stateMutability": "view",
      "type": "function"
    },
    {
      "inputs": [],
      "name": "decimals",
      "outputs": [
        {
          "internalType": "uint8",
          "name": "",
          "type": "uint8"
        }
      ],
      "stateMutability": "view",
      "type": "function"
    },
    {
      "inputs": [
        {
          "internalType": "address",
          "name": "to",
          "type": "address"
        },
        {
          "internalType": "uint256",
          "name": "value",
          "type": "uint256"
        }
      ],
      "name": "mint",
      "outputs": [],
      "stateMutability": "nonpayable",
      "type": "function"
    },
    {
      "inputs": [],
      "name": "name",
      "outputs": [
        {
          "internalType": "string",
          "name": "",
          "type": "string"
        }
      ],
      "stateMutability": "view",
      "type": "function"
    },
    {
      "inputs": [],
      "name": "symbol",
      "outputs": [
        {
          "internalType": "string",
          "name": "",
          "type": "string"
        }
      ],
      "stateMutability": "view",
      "type": "function"
    },
    {
      "inputs": [],
      "name": "totalSupply",
      "outputs": [
        {
          "internalType": "uint256",
          "name": "",
          "type": "uint256"
        }
      ],
      "stateMutability": "view",
      "type": "function"
    },
    {
      "inputs": [
        {
          "internalType": "address",
          "name": "to",
          "type": "address"
        },
        {
          "internalType": "uint256",
          "name": "value",
          "type": "uint256"
        }
      ],
      "name": "transfer",
      "outputs": [
        {
          "internalType": "bool",
          "name": "",
          "type": "bool"
        }
      ],
      "stateMutability": "nonpayable",
      "type": "function"
    },
    {
      "inputs": [
        {
          "internalType": "address",
          "name": "_from",
          "type": "address"
        },
        {
          "internalType": "address",
          "name": "_to",
          "type": "address"
        },
        {
          "internalType": "uint256",
          "name": "_value",
          "type": "uint256"
        }
      ],
      "name": "transferFrom",
      "outputs": [
        {
          "internalType": "bool",
          "name": "",
          "type": "bool"
        }
      ],
      "stateMutability": "nonpayable",
      "type": "function"
    }
  ],
  "bytecode": "0x60806040523480156200001157600080fd5b50604051620017b4380380620017b4833981810160405281019062000037919062000250565b826000908162000048919062000535565b5081600190816200005a919062000535565b5080600260006101000a81548160ff021916908360ff1602179055505050506200061c565b6000604051905090565b600080fd5b600080fd5b600080fd5b600080fd5b6000601f19601f8301169050919050565b7f4e487b7100000000000000000000000000000000000000000000000000000000600052604160045260246000fd5b620000e8826200009d565b810181811067ffffffffffffffff821117156200010a5762000109620000ae565b5b80604052505050565b60006200011f6200007f565b90506200012d8282620000dd565b919050565b600067ffffffffffffffff82111562000150576200014f620000ae565b5b6200015b826200009d565b9050602081019050919050565b60005b83811015620001885780820151818401526020810190506200016b565b60008484015250505050565b6000620001ab620001a58462000132565b62000113565b905082815260208101848484011115620001ca57620001c962000098565b5b620001d784828562000168565b509392505050565b600082601f830112620001f757620001f662000093565b5b81516200020984826020860162000194565b91505092915050565b600060ff82169050919050565b6200022a8162000212565b81146200023657600080fd5b50565b6000815190506200024a816200021f565b92915050565b6000806000606084860312156200026c576200026b62000089565b5b600084015167ffffffffffffffff8111156200028d576200028c6200008e565b5b6200029b86828701620001df565b935050602084015167ffffffffffffffff811115620002bf57620002be6200008e565b5b620002cd86828701620001df565b9250506040620002e08682870162000239565b9150509250925092565b600081519050919050565b7f4e487b7100000000000000000000000000000000000000000000000000000000600052602260045260246000fd5b600060028204905060018216806200033d57607f821691505b602082108103620003535762000352620002f5565b5b50919050565b60008190508160005260206000209050919050565b60006020601f8301049050919050565b600082821b905092915050565b600060088302620003bd7fffffffffffffffffffffffffffffffffffffffffffffffffffffffffffffffff826200037e565b620003c986836200037e565b95508019841693508086168417925050509392505050565b6000819050919050565b6000819050919050565b600062000416620004106200040a84620003e1565b620003eb565b620003e1565b9050919050565b6000819050919050565b6200043283620003f5565b6200044a62000441826200041d565b8484546200038b565b825550505050565b600090565b6200046162000452565b6200046e81848462000427565b505050565b5b8181101562000496576200048a60008262000457565b60018101905062000474565b5050565b601f821115620004e557620004af8162000359565b620004ba846200036e565b81016020851015620004ca578190505b620004e2620004d9856200036e565b83018262000473565b50505b505050565b600082821c905092915050565b60006200050a60001984600802620004ea565b1980831691505092915050565b6000620005258383620004f7565b9150826002028217905092915050565b6200054082620002ea565b67ffffffffffffffff8111156200055c576200055b620000ae565b5b62000568825462000324565b620005758282856200049a565b600060209050601f831160018114620005ad576000841562000598578287015190505b620005a4858262000517565b86555062000614565b601f198416620005bd8662000359565b60005b82811015620005e757848901518255600182019150602085019450602081019050620005c0565b8683101562000607578489015162000603601f891682620004f7565b8355505b6001600288020188555050505b505050505050565b611188806200062c6000396000f3fe608060405234801561001057600080fd5b506004361061009e5760003560e01c806340c10f191161006657806340c10f191461015d57806370a082311461017957806395d89b41146101a95780639cbf7d0d146101c7578063a9059cbb146101f75761009e565b806306fdde03146100a3578063095ea7b3146100c157806318160ddd146100f157806323b872dd1461010f578063313ce5671461013f575b600080fd5b6100ab610227565b6040516100b89190610d7c565b60405180910390f35b6100db60048036038101906100d69190610e37565b6102b9565b6040516100e89190610e92565b60405180910390f35b6100f9610346565b6040516101069190610ebc565b60405180910390f35b61012960048036038101906101249190610ed7565b610350565b6040516101369190610e92565b60405180910390f35b6101476106ca565b6040516101549190610f46565b60405180910390f35b61017760048036038101906101729190610e37565b6106e1565b005b610193600480360381019061018e9190610f61565b610885565b6040516101a09190610ebc565b60405180910390f35b6101b16108ce565b6040516101be9190610d7c565b60405180910390f35b6101e160048036038101906101dc9190610fba565b610960565b6040516101ee9190610e92565b60405180910390f35b610211600480360381019061020c9190610e37565b610a76565b60405161021e9190610e92565b60405180910390f35b60606000805461023690611029565b80601f016020809104026020016040519081016040528092919081815260200182805461026290611029565b80156102af5780601f10610284576101008083540402835291602001916102af565b820191906000526020600020905b81548152906001019060200180831161029257829003601f168201915b5050505050905090565b600081600560003373ffffffffffffffffffffffffffffffffffffffff1673ffffffffffffffffffffffffffffffffffffffff16815260200190815260200160002060008573ffffffffffffffffffffffffffffffffffffffff1673ffffffffffffffffffffffffffffffffffffffff168152602001908152602001600020819055506001905092915050565b6000600354905090565b60008073ffffffffffffffffffffffffffffffffffffffff168373ffffffffffffffffffffffffffffffffffffffff16036103c257826040517f8e4c8aa60000000000000000000000000000000000000000000000000000000081526004016103b99190611069565b60405180910390fd5b600073ffffffffffffffffffffffffffffffffffffffff168473ffffffffffffffffffffffffffffffffffffffff160361043357836040517f8e4c8aa600000000000000000000000000000000000000000000000000000000815260040161042a9190611069565b60405180910390fd5b600460008573ffffffffffffffffffffffffffffffffffffffff1673ffffffffffffffffffffffffffffffffffffffff168152602001908152602001600020548211156104bb578383836040517f3b50867d0000000000000000000000000000000000000000000000000000000081526004016104b293929190611084565b60405180910390fd5b600560008573ffffffffffffffffffffffffffffffffffffffff1673ffffffffffffffffffffffffffffffffffffffff16815260200190815260200160002060003373ffffffffffffffffffffffffffffffffffffffff1673ffffffffffffffffffffffffffffffffffffffff16815260200190815260200160002054821115610580578383836040517f3b50867d00000000000000000000000000000000000000000000000000000000815260040161057793929190611084565b60405180910390fd5b81600460008673ffffffffffffffffffffffffffffffffffffffff1673ffffffffffffffffffffffffffffffffffffffff16815260200190815260200160002060008282546105cf91906110ea565b9250508190555081600460008573ffffffffffffffffffffffffffffffffffffffff1673ffffffffffffffffffffffffffffffffffffffff1681526020019081526020016000206000828254610625919061111e565b9250508190555081600560008673ffffffffffffffffffffffffffffffffffffffff1673ffffffffffffffffffffffffffffffffffffffff16815260200190815260200160002060003373ffffffffffffffffffffffffffffffffffffffff1673ffffffffffffffffffffffffffffffffffffffff16815260200190815260200160002060008282546106b891906110ea565b92505081905550600190509392505050565b6000600260009054906101000a900460ff16905090565b6000339050600073ffffffffffffffffffffffffffffffffffffffff168173ffffffffffffffffffffffffffffffffffffffff160361075757806040517f8e4c8aa600000000000000000000000000000000000000000000000000000000815260040161074e9190611069565b60405180910390fd5b600073ffffffffffffffffffffffffffffffffffffffff168373ffffffffffffffffffffffffffffffffffffffff16036107c857826040517f8e4c8aa60000000000000000000000000000000000000000000000000000000081526004016107bf9190611069565b60405180910390fd5b60008203610811578083836040517f3b50867d00000000000000000000000000000000000000000000000000000000815260040161080893929190611084565b60405180910390fd5b8160036000828254610823919061111e565b9250508190555081600460008573ffffffffffffffffffffffffffffffffffffffff1673ffffffffffffffffffffffffffffffffffffffff1681526020019081526020016000206000828254610879919061111e565b92505081905550505050565b6000600460008373ffffffffffffffffffffffffffffffffffffffff1673ffffffffffffffffffffffffffffffffffffffff168152602001908152602001600020549050919050565b6060600180546108dd90611029565b80601f016020809104026020016040519081016040528092919081815260200182805461090990611029565b80156109565780601f1061092b57610100808354040283529160200191610956565b820191906000526020600020905b81548152906001019060200180831161093957829003601f168201915b5050505050905090565b600080339050600073ffffffffffffffffffffffffffffffffffffffff168473ffffffffffffffffffffffffffffffffffffffff16036109d757836040517f8e4c8aa60000000000000000000000000000000000000000000000000000000081526004016109ce9190611069565b60405180910390fd5b82600660008373ffffffffffffffffffffffffffffffffffffffff1673ffffffffffffffffffffffffffffffffffffffff16815260200190815260200160002060008673ffffffffffffffffffffffffffffffffffffffff1673ffffffffffffffffffffffffffffffffffffffff16815260200190815260200160002060006101000a81548160ff021916908315150217905550600191505092915050565b600080339050600073ffffffffffffffffffffffffffffffffffffffff168173ffffffffffffffffffffffffffffffffffffffff1603610aed57806040517f8e4c8aa6000000000000000000000000000000000000000000000000000000008152600401610ae49190611069565b60405180910390fd5b600073ffffffffffffffffffffffffffffffffffffffff168473ffffffffffffffffffffffffffffffffffffffff1603610b5e57836040517f8e4c8aa6000000000000000000000000000000000000000000000000000000008152600401610b559190611069565b60405180910390fd5b60008303610ba7578084846040517f3b50867d000000000000000000000000000000000000000000000000000000008152600401610b9e93929190611084565b60405180910390fd5b6000600460008373ffffffffffffffffffffffffffffffffffffffff1673ffffffffffffffffffffffffffffffffffffffff16815260200190815260200160002054905083811015610c34578185856040517f3b50867d000000000000000000000000000000000000000000000000000000008152600401610c2b93929190611084565b60405180910390fd5b83600460008473ffffffffffffffffffffffffffffffffffffffff1673ffffffffffffffffffffffffffffffffffffffff1681526020019081526020016000206000828254610c8391906110ea565b9250508190555083600460008773ffffffffffffffffffffffffffffffffffffffff1673ffffffffffffffffffffffffffffffffffffffff1681526020019081526020016000206000828254610cd9919061111e565b9250508190555060019250505092915050565b600081519050919050565b600082825260208201905092915050565b60005b83811015610d26578082015181840152602081019050610d0b565b60008484015250505050565b6000601f19601f8301169050919050565b6000610d4e82610cec565b610d588185610cf7565b9350610d68818560208601610d08565b610d7181610d32565b840191505092915050565b60006020820190508181036000830152610d968184610d43565b905092915050565b600080fd5b600073ffffffffffffffffffffffffffffffffffffffff82169050919050565b6000610dce82610da3565b9050919050565b610dde81610dc3565b8114610de957600080fd5b50565b600081359050610dfb81610dd5565b92915050565b6000819050919050565b610e1481610e01565b8114610e1f57600080fd5b50565b600081359050610e3181610e0b565b92915050565b60008060408385031215610e4e57610e4d610d9e565b5b6000610e5c85828601610dec565b9250506020610e6d85828601610e22565b9150509250929050565b60008115159050919050565b610e8c81610e77565b82525050565b6000602082019050610ea76000830184610e83565b92915050565b610eb681610e01565b82525050565b6000602082019050610ed16000830184610ead565b92915050565b600080600060608486031215610ef057610eef610d9e565b5b6000610efe86828701610dec565b9350506020610f0f86828701610dec565b9250506040610f2086828701610e22565b9150509250925092565b600060ff82169050919050565b610f4081610f2a565b82525050565b6000602082019050610f5b6000830184610f37565b92915050565b600060208284031215610f7757610f76610d9e565b5b6000610f8584828501610dec565b91505092915050565b610f9781610e77565b8114610fa257600080fd5b50565b600081359050610fb481610f8e565b92915050565b60008060408385031215610fd157610fd0610d9e565b5b6000610fdf85828601610dec565b9250506020610ff085828601610fa5565b9150509250929050565b7f4e487b7100000000000000000000000000000000000000000000000000000000600052602260045260246000fd5b6000600282049050600182168061104157607f821691505b60208210810361105457611053610ffa565b5b50919050565b61106381610dc3565b82525050565b600060208201905061107e600083018461105a565b92915050565b6000606082019050611099600083018661105a565b6110a6602083018561105a565b6110b36040830184610ead565b949350505050565b7f4e487b7100000000000000000000000000000000000000000000000000000000600052601160045260246000fd5b60006110f582610e01565b915061110083610e01565b9250828203905081811115611118576111176110bb565b5b92915050565b600061112982610e01565b915061113483610e01565b925082820190508082111561114c5761114b6110bb565b5b9291505056fea26469706673582212200e347b2b9dd7e96291885728e23549b52cdb442e22be546b034b6f705efe083964736f6c63430008120033",
  "linkReferences": {},
  "deployedLinkReferences": {}
}