{
  "_format": "hh-sol-artifact-1",
  "contractName": "JustCounter",
  "sourceName": "contracts/JustCounter.sol",
  "abi": [
    {
      "inputs": [],
      "name": "count",
      "outputs": [
        {
          "internalType": "uint256",
          "name": "",
          "type": "uint256"
        }
      ],
      "stateMutability": "view",
      "type": "function"
    },
    {
      "inputs": [],
      "name": "decreaseCount",
      "outputs": [],
      "stateMutability": "nonpayable",
      "type": "function"
    },
    {
      "inputs": [],
      "name": "decreaseUnderCount",
      "outputs": [],
      "stateMutability": "nonpayable",
      "type": "function"
    },
    {
      "inputs": [],
      "name": "getUnderCount",
      "outputs": [
        {
          "internalType": "int256",
          "name": "",
          "type": "int256"
        }
      ],
      "stateMutability": "view",
      "type": "function"
    },
    {
      "inputs": [],
      "name": "increaseCount",
      "outputs": [],
      "stateMutability": "nonpayable",
      "type": "function"
    },
    {
      "inputs": [],
      "name": "increaseUnderCount",
      "outputs": [],
      "stateMutability": "nonpayable",
      "type": "function"
    },
    {
      "inputs": [],
      "name": "isCountEven",
      "outputs": [
        {
          "internalType": "bool",
          "name": "",
          "type": "bool"
        }
      ],
      "stateMutability": "view",
      "type": "function"
    },
    {
      "inputs": [],
      "name": "retrieve",
      "outputs": [
        {
          "internalType": "uint256",
          "name": "",
          "type": "uint256"
        }
      ],
      "stateMutability": "view",
      "type": "function"
    },
    {
      "inputs": [
        {
          "internalType": "uint256",
          "name": "num",
          "type": "uint256"
        }
      ],
      "name": "store",
      "outputs": [],
      "stateMutability": "nonpayable",
      "type": "function"
    },
    {
      "inputs": [],
      "name": "underCount",
      "outputs": [
        {
          "internalType": "int256",
          "name": "",
          "type": "int256"
        }
      ],
      "stateMutability": "view",
      "type": "function"
    }
  ],
  "bytecode": "0x608060405234801561001057600080fd5b506104f6806100206000396000f3fe608060405234801561001057600080fd5b506004361061009e5760003560e01c8063846c550211610066578063846c550214610123578063abd1b73d1461012d578063bd7b049614610137578063e834cbb314610155578063eb91e5101461015f5761009e565b806304156f4f146100a357806306661abd146100ad5780631c417b26146100cb5780632e64cec1146100e95780636057361d14610107575b600080fd5b6100ab61017d565b005b6100b5610198565b6040516100c2919061025f565b60405180910390f35b6100d361019e565b6040516100e09190610293565b60405180910390f35b6100f16101a8565b6040516100fe919061025f565b60405180910390f35b610121600480360381019061011c91906102df565b6101b1565b005b61012b6101bb565b005b6101356101d6565b005b61013f6101f1565b60405161014c9190610293565b60405180910390f35b61015d6101f7565b005b610167610212565b6040516101749190610327565b60405180910390f35b600180600082825461018f9190610371565b92505081905550565b60005481565b6000600154905090565b60008054905090565b8060008190555050565b60018060008282546101cd91906103b4565b92505081905550565b60016000808282546101e891906103f8565b92505081905550565b60015481565b6001600080828254610209919061042c565b92505081905550565b60008061021d6101a8565b9050600060028261022e919061048f565b0361023d576001915050610243565b60009150505b90565b6000819050919050565b61025981610246565b82525050565b60006020820190506102746000830184610250565b92915050565b6000819050919050565b61028d8161027a565b82525050565b60006020820190506102a86000830184610284565b92915050565b600080fd5b6102bc81610246565b81146102c757600080fd5b50565b6000813590506102d9816102b3565b92915050565b6000602082840312156102f5576102f46102ae565b5b6000610303848285016102ca565b91505092915050565b60008115159050919050565b6103218161030c565b82525050565b600060208201905061033c6000830184610318565b92915050565b7f4e487b7100000000000000000000000000000000000000000000000000000000600052601160045260246000fd5b600061037c8261027a565b91506103878361027a565b92508282039050818112600084121682821360008512151617156103ae576103ad610342565b5b92915050565b60006103bf8261027a565b91506103ca8361027a565b9250828201905082811215600083121683821260008412151617156103f2576103f1610342565b5b92915050565b600061040382610246565b915061040e83610246565b925082820190508082111561042657610425610342565b5b92915050565b600061043782610246565b915061044283610246565b925082820390508181111561045a57610459610342565b5b92915050565b7f4e487b7100000000000000000000000000000000000000000000000000000000600052601260045260246000fd5b600061049a82610246565b91506104a583610246565b9250826104b5576104b4610460565b5b82820690509291505056fea2646970667358221220534b5a31313b28e8c5b35981f2d374da9ecdfc3347e7416bcab6248f4774fa4264736f6c63430008120033",
  "linkReferences": {},
  "deployedLinkReferences": {}
}