{
  "_format": "hh-sol-artifact-1",
  "contractName": "SimpleCounter",
  "sourceName": "contracts/SimpleCounter.sol",
  "abi": [
    {
      "anonymous": false,
      "inputs": [
        {
          "indexed": true,
          "internalType": "address",
          "name": "sender",
          "type": "address"
        },
        {
          "indexed": false,
          "internalType": "int256",
          "name": "count",
          "type": "int256"
        }
      ],
      "name": "underCountAlteration",
      "type": "event"
    },
    {
      "anonymous": false,
      "inputs": [
        {
          "indexed": true,
          "internalType": "address",
          "name": "sender",
          "type": "address"
        },
        {
          "indexed": false,
          "internalType": "uint256",
          "name": "count",
          "type": "uint256"
        }
      ],
      "name": "valueAlteration",
      "type": "event"
    },
    {
      "inputs": [
        {
          "internalType": "address",
          "name": "newOwner",
          "type": "address"
        }
      ],
      "name": "changeOwner",
      "outputs": [],
      "stateMutability": "nonpayable",
      "type": "function"
    },
    {
      "inputs": [],
      "name": "decreaseCount",
      "outputs": [],
      "stateMutability": "nonpayable",
      "type": "function"
    },
    {
      "inputs": [],
      "name": "decreaseUnderCount",
      "outputs": [],
      "stateMutability": "nonpayable",
      "type": "function"
    },
    {
      "inputs": [],
      "name": "getCurrentOwner",
      "outputs": [
        {
          "internalType": "address",
          "name": "",
          "type": "address"
        }
      ],
      "stateMutability": "view",
      "type": "function"
    },
    {
      "inputs": [],
      "name": "getUnderCount",
      "outputs": [
        {
          "internalType": "int256",
          "name": "",
          "type": "int256"
        }
      ],
      "stateMutability": "view",
      "type": "function"
    },
    {
      "inputs": [],
      "name": "increaseCount",
      "outputs": [],
      "stateMutability": "nonpayable",
      "type": "function"
    },
    {
      "inputs": [],
      "name": "increaseUnderCount",
      "outputs": [],
      "stateMutability": "nonpayable",
      "type": "function"
    },
    {
      "inputs": [],
      "name": "isCountEven",
      "outputs": [
        {
          "internalType": "bool",
          "name": "",
          "type": "bool"
        }
      ],
      "stateMutability": "view",
      "type": "function"
    },
    {
      "inputs": [],
      "name": "isOwner",
      "outputs": [
        {
          "internalType": "bool",
          "name": "",
          "type": "bool"
        }
      ],
      "stateMutability": "view",
      "type": "function"
    },
    {
      "inputs": [],
      "name": "retrieve",
      "outputs": [
        {
          "internalType": "uint256",
          "name": "",
          "type": "uint256"
        }
      ],
      "stateMutability": "view",
      "type": "function"
    },
    {
      "inputs": [
        {
          "internalType": "uint256",
          "name": "num",
          "type": "uint256"
        }
      ],
      "name": "store",
      "outputs": [],
      "stateMutability": "nonpayable",
      "type": "function"
    },
    {
      "inputs": [],
      "name": "whoIsOwner",
      "outputs": [
        {
          "internalType": "address",
          "name": "",
          "type": "address"
        }
      ],
      "stateMutability": "view",
      "type": "function"
    }
  ],
  "bytecode": "0x608060405234801561001057600080fd5b50600073ffffffffffffffffffffffffffffffffffffffff163373ffffffffffffffffffffffffffffffffffffffff1603610080576040517f08c379a000000000000000000000000000000000000000000000000000000000815260040161007790610122565b60405180910390fd5b336000806101000a81548173ffffffffffffffffffffffffffffffffffffffff021916908373ffffffffffffffffffffffffffffffffffffffff160217905550610142565b600082825260208201905092915050565b7f6465706c6f7965722063616e6e6f742062652061646472203000000000000000600082015250565b600061010c6019836100c5565b9150610117826100d6565b602082019050919050565b6000602082019050818103600083015261013b816100ff565b9050919050565b610cce806101516000396000f3fe608060405234801561001057600080fd5b50600436106100b45760003560e01c80639ee1bd0f116100715780639ee1bd0f14610143578063a18a186b14610161578063a6f9dae11461017f578063abd1b73d1461019b578063e834cbb3146101a5578063eb91e510146101af576100b4565b806304156f4f146100b95780631c417b26146100c35780632e64cec1146100e15780636057361d146100ff578063846c55021461011b5780638f32d59b14610125575b600080fd5b6100c16101cd565b005b6100cb6102c7565b6040516100d89190610899565b60405180910390f35b6100e96102d1565b6040516100f691906108cd565b60405180910390f35b61011960048036038101906101149190610919565b6102db565b005b610123610373565b005b61012d61046d565b60405161013a9190610961565b60405180910390f35b61014b6104e0565b60405161015891906109bd565b60405180910390f35b6101696104ef565b60405161017691906109bd565b60405180910390f35b61019960048036038101906101949190610a04565b610518565b005b6101a361065a565b005b6101ad610753565b005b6101b761084c565b6040516101c49190610961565b60405180910390f35b60008054906101000a900473ffffffffffffffffffffffffffffffffffffffff1673ffffffffffffffffffffffffffffffffffffffff163373ffffffffffffffffffffffffffffffffffffffff161461025b576040517f08c379a000000000000000000000000000000000000000000000000000000000815260040161025290610a8e565b60405180910390fd5b60016002600082825461026e9190610add565b925050819055503373ffffffffffffffffffffffffffffffffffffffff167f6b7d14e8d2e70a54e78adffefe1b2750a3a6194baaa86c1652bc421a93eeceb76002546040516102bd9190610899565b60405180910390a2565b6000600254905090565b6000600154905090565b60008054906101000a900473ffffffffffffffffffffffffffffffffffffffff1673ffffffffffffffffffffffffffffffffffffffff163373ffffffffffffffffffffffffffffffffffffffff1614610369576040517f08c379a000000000000000000000000000000000000000000000000000000000815260040161036090610a8e565b60405180910390fd5b8060018190555050565b60008054906101000a900473ffffffffffffffffffffffffffffffffffffffff1673ffffffffffffffffffffffffffffffffffffffff163373ffffffffffffffffffffffffffffffffffffffff1614610401576040517f08c379a00000000000000000000000000000000000000000000000000000000081526004016103f890610a8e565b60405180910390fd5b6001600260008282546104149190610b20565b925050819055503373ffffffffffffffffffffffffffffffffffffffff167f6b7d14e8d2e70a54e78adffefe1b2750a3a6194baaa86c1652bc421a93eeceb76002546040516104639190610899565b60405180910390a2565b6000806104786104ef565b905060008054906101000a900473ffffffffffffffffffffffffffffffffffffffff1673ffffffffffffffffffffffffffffffffffffffff168173ffffffffffffffffffffffffffffffffffffffff16036104d75760019150506104dd565b60009150505b90565b60006104ea6104ef565b905090565b60008060009054906101000a900473ffffffffffffffffffffffffffffffffffffffff16905090565b60008054906101000a900473ffffffffffffffffffffffffffffffffffffffff1673ffffffffffffffffffffffffffffffffffffffff163373ffffffffffffffffffffffffffffffffffffffff16146105a6576040517f08c379a000000000000000000000000000000000000000000000000000000000815260040161059d90610a8e565b60405180910390fd5b80600073ffffffffffffffffffffffffffffffffffffffff168173ffffffffffffffffffffffffffffffffffffffff1603610616576040517f08c379a000000000000000000000000000000000000000000000000000000000815260040161060d90610bb0565b60405180910390fd5b816000806101000a81548173ffffffffffffffffffffffffffffffffffffffff021916908373ffffffffffffffffffffffffffffffffffffffff1602179055505050565b60008054906101000a900473ffffffffffffffffffffffffffffffffffffffff1673ffffffffffffffffffffffffffffffffffffffff163373ffffffffffffffffffffffffffffffffffffffff16146106e8576040517f08c379a00000000000000000000000000000000000000000000000000000000081526004016106df90610a8e565b60405180910390fd5b60018060008282546106fa9190610bd0565b925050819055503373ffffffffffffffffffffffffffffffffffffffff167fc38715e7eba77614becd037107ff560fcbcaeafd0330f53e0501dd7be84a2e9c60015460405161074991906108cd565b60405180910390a2565b60008054906101000a900473ffffffffffffffffffffffffffffffffffffffff1673ffffffffffffffffffffffffffffffffffffffff163373ffffffffffffffffffffffffffffffffffffffff16146107e1576040517f08c379a00000000000000000000000000000000000000000000000000000000081526004016107d890610a8e565b60405180910390fd5b60018060008282546107f39190610c04565b925050819055503373ffffffffffffffffffffffffffffffffffffffff167fc38715e7eba77614becd037107ff560fcbcaeafd0330f53e0501dd7be84a2e9c60015460405161084291906108cd565b60405180910390a2565b6000806108576102d1565b905060006002826108689190610c67565b0361087757600191505061087d565b60009150505b90565b6000819050919050565b61089381610880565b82525050565b60006020820190506108ae600083018461088a565b92915050565b6000819050919050565b6108c7816108b4565b82525050565b60006020820190506108e260008301846108be565b92915050565b600080fd5b6108f6816108b4565b811461090157600080fd5b50565b600081359050610913816108ed565b92915050565b60006020828403121561092f5761092e6108e8565b5b600061093d84828501610904565b91505092915050565b60008115159050919050565b61095b81610946565b82525050565b60006020820190506109766000830184610952565b92915050565b600073ffffffffffffffffffffffffffffffffffffffff82169050919050565b60006109a78261097c565b9050919050565b6109b78161099c565b82525050565b60006020820190506109d260008301846109ae565b92915050565b6109e18161099c565b81146109ec57600080fd5b50565b6000813590506109fe816109d8565b92915050565b600060208284031215610a1a57610a196108e8565b5b6000610a28848285016109ef565b91505092915050565b600082825260208201905092915050565b7f63616c6c6572206e6f74206f776e657200000000000000000000000000000000600082015250565b6000610a78601083610a31565b9150610a8382610a42565b602082019050919050565b60006020820190508181036000830152610aa781610a6b565b9050919050565b7f4e487b7100000000000000000000000000000000000000000000000000000000600052601160045260246000fd5b6000610ae882610880565b9150610af383610880565b9250828203905081811260008412168282136000851215161715610b1a57610b19610aae565b5b92915050565b6000610b2b82610880565b9150610b3683610880565b925082820190508281121560008312168382126000841215161715610b5e57610b5d610aae565b5b92915050565b7f6e6577206f776e65722063616e6e6f742062652061646472657373207a65726f600082015250565b6000610b9a602083610a31565b9150610ba582610b64565b602082019050919050565b60006020820190508181036000830152610bc981610b8d565b9050919050565b6000610bdb826108b4565b9150610be6836108b4565b9250828201905080821115610bfe57610bfd610aae565b5b92915050565b6000610c0f826108b4565b9150610c1a836108b4565b9250828203905081811115610c3257610c31610aae565b5b92915050565b7f4e487b7100000000000000000000000000000000000000000000000000000000600052601260045260246000fd5b6000610c72826108b4565b9150610c7d836108b4565b925082610c8d57610c8c610c38565b5b82820690509291505056fea2646970667358221220a0e033daecbd0a12c0c0100876271cdbe5255c81ea187761ca5cce7778e1cd9164736f6c63430008120033",
  "linkReferences": {},
  "deployedLinkReferences": {}
}