{
  "_format": "hh-sol-artifact-1",
  "contractName": "ImplementAllContract",
  "sourceName": "contracts/ImplementAllContract.sol",
  "abi": [
    {
      "inputs": [
        {
          "internalType": "address",
          "name": "_iJustCounter",
          "type": "address"
        }
      ],
      "stateMutability": "nonpayable",
      "type": "constructor"
    },
    {
      "inputs": [],
      "name": "fetchCount",
      "outputs": [
        {
          "internalType": "uint256",
          "name": "",
          "type": "uint256"
        }
      ],
      "stateMutability": "view",
      "type": "function"
    },
    {
      "inputs": [],
      "name": "iJustCounter",
      "outputs": [
        {
          "internalType": "contract IJustCounter",
          "name": "",
          "type": "address"
        }
      ],
      "stateMutability": "view",
      "type": "function"
    },
    {
      "inputs": [],
      "name": "newIncreaseCount",
      "outputs": [],
      "stateMutability": "nonpayable",
      "type": "function"
    }
  ],
  "bytecode": "0x608060405234801561001057600080fd5b50604051610442380380610442833981810160405281019061003291906100db565b806000806101000a81548173ffffffffffffffffffffffffffffffffffffffff021916908373ffffffffffffffffffffffffffffffffffffffff16021790555050610108565b600080fd5b600073ffffffffffffffffffffffffffffffffffffffff82169050919050565b60006100a88261007d565b9050919050565b6100b88161009d565b81146100c357600080fd5b50565b6000815190506100d5816100af565b92915050565b6000602082840312156100f1576100f0610078565b5b60006100ff848285016100c6565b91505092915050565b61032b806101176000396000f3fe608060405234801561001057600080fd5b50600436106100415760003560e01c8063538c56c414610046578063d3e64be614610050578063d6e4f8b31461006e575b600080fd5b61004e61008c565b005b61005861010e565b60405161006591906101e2565b60405180910390f35b6100766101a5565b604051610083919061027c565b60405180910390f35b60008054906101000a900473ffffffffffffffffffffffffffffffffffffffff1673ffffffffffffffffffffffffffffffffffffffff1663abd1b73d6040518163ffffffff1660e01b8152600401600060405180830381600087803b1580156100f457600080fd5b505af1158015610108573d6000803e3d6000fd5b50505050565b60008060009054906101000a900473ffffffffffffffffffffffffffffffffffffffff1673ffffffffffffffffffffffffffffffffffffffff16632e64cec16040518163ffffffff1660e01b8152600401602060405180830381865afa15801561017c573d6000803e3d6000fd5b505050506040513d601f19601f820116820180604052508101906101a091906102c8565b905090565b60008054906101000a900473ffffffffffffffffffffffffffffffffffffffff1681565b6000819050919050565b6101dc816101c9565b82525050565b60006020820190506101f760008301846101d3565b92915050565b600073ffffffffffffffffffffffffffffffffffffffff82169050919050565b6000819050919050565b600061024261023d610238846101fd565b61021d565b6101fd565b9050919050565b600061025482610227565b9050919050565b600061026682610249565b9050919050565b6102768161025b565b82525050565b6000602082019050610291600083018461026d565b92915050565b600080fd5b6102a5816101c9565b81146102b057600080fd5b50565b6000815190506102c28161029c565b92915050565b6000602082840312156102de576102dd610297565b5b60006102ec848285016102b3565b9150509291505056fea2646970667358221220a7c4d72d9c0dad3c02f7abd4a6e619af0aa6099560ed9d5b2056c96ab9639d7264736f6c63430008120033",
  "linkReferences": {},
  "deployedLinkReferences": {}
}