{
  "_format": "hh-sol-artifact-1",
  "contractName": "Ownable",
  "sourceName": "contracts/Ownable.sol",
  "abi": [
    {
      "inputs": [],
      "stateMutability": "nonpayable",
      "type": "constructor"
    },
    {
      "inputs": [
        {
          "internalType": "address",
          "name": "newOwner",
          "type": "address"
        }
      ],
      "name": "changeOwner",
      "outputs": [],
      "stateMutability": "nonpayable",
      "type": "function"
    },
    {
      "inputs": [],
      "name": "getCurrentOwner",
      "outputs": [
        {
          "internalType": "address",
          "name": "",
          "type": "address"
        }
      ],
      "stateMutability": "view",
      "type": "function"
    }
  ],
  "bytecode": "0x608060405234801561001057600080fd5b50600073ffffffffffffffffffffffffffffffffffffffff163373ffffffffffffffffffffffffffffffffffffffff1603610080576040517f08c379a000000000000000000000000000000000000000000000000000000000815260040161007790610122565b60405180910390fd5b336000806101000a81548173ffffffffffffffffffffffffffffffffffffffff021916908373ffffffffffffffffffffffffffffffffffffffff160217905550610142565b600082825260208201905092915050565b7f6465706c6f7965722063616e6e6f742062652061646472203000000000000000600082015250565b600061010c6019836100c5565b9150610117826100d6565b602082019050919050565b6000602082019050818103600083015261013b816100ff565b9050919050565b6103b9806101516000396000f3fe608060405234801561001057600080fd5b50600436106100365760003560e01c8063a18a186b1461003b578063a6f9dae114610059575b600080fd5b610043610075565b6040516100509190610221565b60405180910390f35b610073600480360381019061006e919061026d565b61009e565b005b60008060009054906101000a900473ffffffffffffffffffffffffffffffffffffffff16905090565b60008054906101000a900473ffffffffffffffffffffffffffffffffffffffff1673ffffffffffffffffffffffffffffffffffffffff163373ffffffffffffffffffffffffffffffffffffffff161461012c576040517f08c379a0000000000000000000000000000000000000000000000000000000008152600401610123906102f7565b60405180910390fd5b80600073ffffffffffffffffffffffffffffffffffffffff168173ffffffffffffffffffffffffffffffffffffffff160361019c576040517f08c379a000000000000000000000000000000000000000000000000000000000815260040161019390610363565b60405180910390fd5b816000806101000a81548173ffffffffffffffffffffffffffffffffffffffff021916908373ffffffffffffffffffffffffffffffffffffffff1602179055505050565b600073ffffffffffffffffffffffffffffffffffffffff82169050919050565b600061020b826101e0565b9050919050565b61021b81610200565b82525050565b60006020820190506102366000830184610212565b92915050565b600080fd5b61024a81610200565b811461025557600080fd5b50565b60008135905061026781610241565b92915050565b6000602082840312156102835761028261023c565b5b600061029184828501610258565b91505092915050565b600082825260208201905092915050565b7f63616c6c6572206e6f74206f776e657200000000000000000000000000000000600082015250565b60006102e160108361029a565b91506102ec826102ab565b602082019050919050565b60006020820190508181036000830152610310816102d4565b9050919050565b7f6e6577206f776e65722063616e6e6f742062652061646472657373207a65726f600082015250565b600061034d60208361029a565b915061035882610317565b602082019050919050565b6000602082019050818103600083015261037c81610340565b905091905056fea2646970667358221220632bff85a92f5a61357b72067d11d849b29ef062ad1e3f9c8233677b38757d7b64736f6c63430008120033",
  "linkReferences": {},
  "deployedLinkReferences": {}
}